{
  "_format": "hh-sol-artifact-1",
  "contractName": "TestFlashloanReceiver",
  "sourceName": "contracts/TestFlashloanReceiver.sol",
  "abi": [
    {
      "inputs": [
        {
          "internalType": "address",
          "name": "_addressProvider",
          "type": "address"
        }
      ],
      "stateMutability": "nonpayable",
      "type": "constructor"
    },
    {
      "anonymous": false,
      "inputs": [
        {
          "indexed": false,
          "internalType": "uint256",
          "name": "balance",
          "type": "uint256"
        }
      ],
      "name": "Profit",
      "type": "event"
    },
    {
      "anonymous": false,
      "inputs": [
        {
          "indexed": false,
          "internalType": "address",
          "name": "asset",
          "type": "address"
        },
        {
          "indexed": false,
          "internalType": "uint256",
          "name": "amount",
          "type": "uint256"
        },
        {
          "indexed": false,
          "internalType": "uint256",
          "name": "premium",
          "type": "uint256"
        }
      ],
      "name": "ReceivedFlashloan",
      "type": "event"
    },
    {
      "anonymous": false,
      "inputs": [
        {
          "indexed": false,
          "internalType": "uint256",
          "name": "totalRepayment",
          "type": "uint256"
        }
      ],
      "name": "RepaidLoan",
      "type": "event"
    },
    {
      "anonymous": false,
      "inputs": [
        {
          "indexed": false,
          "internalType": "address",
          "name": "tokenIn",
          "type": "address"
        },
        {
          "indexed": false,
          "internalType": "address",
          "name": "tokenOut",
          "type": "address"
        },
        {
          "indexed": false,
          "internalType": "uint256",
          "name": "amountIn",
          "type": "uint256"
        },
        {
          "indexed": false,
          "internalType": "uint256",
          "name": "amountOut",
          "type": "uint256"
        }
      ],
      "name": "Swapped",
      "type": "event"
    },
    {
      "inputs": [],
      "name": "ADDRESSES_PROVIDER",
      "outputs": [
        {
          "internalType": "contract IPoolAddressesProvider",
          "name": "",
          "type": "address"
        }
      ],
      "stateMutability": "view",
      "type": "function"
    },
    {
      "inputs": [],
      "name": "POOL",
      "outputs": [
        {
          "internalType": "contract IPool",
          "name": "",
          "type": "address"
        }
      ],
      "stateMutability": "view",
      "type": "function"
    },
    {
      "inputs": [
        {
          "internalType": "address",
          "name": "asset",
          "type": "address"
        },
        {
          "internalType": "uint256",
          "name": "amount",
          "type": "uint256"
        },
        {
          "internalType": "uint256",
          "name": "premium",
          "type": "uint256"
        },
        {
          "internalType": "address",
          "name": "initiator",
          "type": "address"
        },
        {
          "internalType": "bytes",
          "name": "params",
          "type": "bytes"
        }
      ],
      "name": "executeOperation",
      "outputs": [
        {
          "internalType": "bool",
          "name": "",
          "type": "bool"
        }
      ],
      "stateMutability": "nonpayable",
      "type": "function"
    }
  ],
  "bytecode": "0x60c080604052346100ce5760046020610a66803803809161002082876100d3565b85396001600160a01b0393849161003a919081019061010c565b16806080526040519283809263026b1d5f60e01b82525afa9081156100c257600091610094575b501660a05260405161093a908161012c8239608051816106e8015260a05181818160560152818161010301526104710152f35b6100b5915060203d81116100bb575b6100ad81836100d3565b81019061010c565b38610061565b503d6100a3565b6040513d6000823e3d90fd5b600080fd5b601f909101601f19168101906001600160401b038211908210176100f657604052565b634e487b7160e01b600052604160045260246000fd5b908160209103126100ce57516001600160a01b03811681036100ce579056fe608080604052600436101561001357600080fd5b60003560e01c9081630542975c146106d5575080631b11d0ff1461008a57637535d2461461004057600080fd5b34610085576000366003190112610085576040517f00000000000000000000000000000000000000000000000000000000000000006001600160a01b03168152602090f35b600080fd5b346100855760a0366003190112610085576004356001600160a01b0381168103610085576064356001600160a01b038116908190036100855767ffffffffffffffff90816084351161008557366023608435011215610085576084356004013582811161008557602481608435010191368311610085577f00000000000000000000000000000000000000000000000000000000000000006001600160a01b031633036106a057300361066c5760a0907f881be9927fcf346691c123cc71b9aee0ed4b23ebcebe4d66aee5891dac6c1b476060604051600180861b038816815260243560208201526044356040820152a160843590810103126100855760843560240135916001600160a01b03831683036100855760446084350135818111610085578260246101be926084350101610767565b91606460843501359182116100855760246101dd926084350101610767565b60405163095ea7b360e01b81526001600160a01b038416600482015260248035908201526020818060448101038160006001600160a01b038a165af180156105965761064d575b506040516338ed173960e01b8152916000838061024f42308660848035013560243560048701610867565b0381836001600160a01b0389165af192831561059657600093610627575b50600090602090610355907fa078c4190abe07940190effc1846be0ccf03ad6007bc9e93f9697d0b460befbb6001600160a01b036102aa836108d1565b51166001600160a01b036102bd846108f4565b51166103016102cb8a6108f4565b51604080516001600160a01b03958616815294909316602085015260243592840192909252606083019190915281906080820190565b0390a16001600160a01b0390610316906108f4565b5116610321866108f4565b5160405163095ea7b360e01b81526001600160a01b0389166004820152602481019190915293849283919082906044820190565b03925af180156105965760009485926103a192610608575b50610377856108f4565b516040519687809481936338ed173960e01b8352429089309160a460843501359060048701610867565b03926001600160a01b03165af1928315610596577fa078c4190abe07940190effc1846be0ccf03ad6007bc9e93f9697d0b460befbb9361044f916000916105e5575b5061041f6104186001600160a01b036103fb866108d1565b5116946001600160a01b0390610410906108f4565b5116956108f4565b51916108f4565b51604080516001600160a01b03958616815295909416602086015292840152606083019190915281906080820190565b0390a16044356024350180602435116105cf5760405163095ea7b360e01b81527f00000000000000000000000000000000000000000000000000000000000000006001600160a01b0316600482015260248101829052916020838060448101038160006001600160a01b0386165af192831561059657602080937fefd8ddddf5453edd0268f1d7285c8989d1e3e45bc16e2d7ff936d41db52bb60e926024966105a2575b50604051908152a16040516370a0823160e01b815230600482015292839182906001600160a01b03165afa90811561059657600091610563575b7f357d905f1831209797df4d55d79c5c5bf1d9f7311c976afd05e13d881eab9bc8602083604051908152a1602060405160018152f35b90506020813d60201161058e575b8161057e60209383610717565b810103126100855751602061052d565b3d9150610571565b6040513d6000823e3d90fd5b6105c190833d85116105c8575b6105b98183610717565b8101906107d5565b50866104f3565b503d6105af565b634e487b7160e01b600052601160045260246000fd5b61060291503d806000833e6105fa8183610717565b8101906107ed565b866103e3565b6106209060203d6020116105c8576105b98183610717565b508761036d565b60009193506103556106446020923d8086833e6105fa8183610717565b9492505061026d565b6106659060203d6020116105c8576105b98183610717565b5084610224565b60405162461bcd60e51b815260206004820152600c60248201526b139bdd0818dbdb9d1c9858dd60a21b6044820152606490fd5b60405162461bcd60e51b815260206004820152600d60248201526c139bdd0810585d99481c1bdbdb609a1b6044820152606490fd5b34610085576000366003190112610085577f00000000000000000000000000000000000000000000000000000000000000006001600160a01b03168152602090f35b90601f8019910116810190811067ffffffffffffffff82111761073957604052565b634e487b7160e01b600052604160045260246000fd5b67ffffffffffffffff81116107395760051b60200190565b81601f820112156100855780359161077e8361074f565b9261078c6040519485610717565b808452602092838086019260051b820101928311610085578301905b8282106107b6575050505090565b81356001600160a01b03811681036100855781529083019083016107a8565b90816020910312610085575180151581036100855790565b60209081818403126100855780519067ffffffffffffffff821161008557019180601f840112156100855782516108238161074f565b936108316040519586610717565b818552838086019260051b820101928311610085578301905b828210610858575050505090565b8151815290830190830161084a565b9291909594939560a084019084526020918285015260a0604085015282518091528160c0850193019160005b8281106108b45750505050906080919460018060a01b031660608201520152565b83516001600160a01b031685529381019392810192600101610893565b8051156108de5760200190565b634e487b7160e01b600052603260045260246000fd5b8051600110156108de576040019056fea26469706673582212200246a626b8f17245b978468fa0259302bad5d57b45dab144c62fc129290fd74564736f6c63430008140033",
  "linkReferences": {},
  "deployedLinkReferences": {}
}