{"contracts/ProfitBot.sol":{"ProfitBot":{"abi":[{"inputs":[{"internalType":"address","name":"_provider","type":"address"},{"internalType":"address","name":"_uniswapRouter","type":"address"},{"internalType":"address","name":"_sushiSwapRouter","type":"address"},{"internalType":"address","name":"_balancerVault","type":"address"}],"stateMutability":"nonpayable","type":"constructor"},{"anonymous":false,"inputs":[{"indexed":false,"internalType":"string","name":"msg","type":"string"}],"name":"DebugText","type":"event"},{"anonymous":false,"inputs":[{"indexed":true,"internalType":"address","name":"previousOwner","type":"address"},{"indexed":true,"internalType":"address","name":"newOwner","type":"address"}],"name":"OwnershipTransferred","type":"event"},{"anonymous":false,"inputs":[{"indexed":false,"internalType":"uint256","name":"finalAmount","type":"uint256"},{"indexed":false,"internalType":"uint256","name":"totalDebt","type":"uint256"}],"name":"ProfitEvaluated","type":"event"},{"anonymous":false,"inputs":[{"indexed":false,"internalType":"uint256","name":"out","type":"uint256"}],"name":"SwapResult","type":"event"},{"inputs":[],"name":"ADDRESSES_PROVIDER","outputs":[{"internalType":"contract IPoolAddressesProvider","name":"","type":"address"}],"stateMutability":"view","type":"function"},{"inputs":[],"name":"POOL","outputs":[{"internalType":"contract IPool","name":"","type":"address"}],"stateMutability":"view","type":"function"},{"inputs":[],"name":"balancerVault","outputs":[{"internalType":"contract IVault","name":"","type":"address"}],"stateMutability":"view","type":"function"},{"inputs":[{"internalType":"bytes","name":"params","type":"bytes"}],"name":"decodeBalancerParams","outputs":[{"internalType":"string","name":"route","type":"string"},{"internalType":"address","name":"tokenIn","type":"address"},{"internalType":"address","name":"tokenOut","type":"address"},{"internalType":"bytes32","name":"poolId","type":"bytes32"},{"internalType":"uint256","name":"minOut1","type":"uint256"},{"internalType":"uint256","name":"minOut2","type":"uint256"}],"stateMutability":"pure","type":"function"},{"inputs":[{"internalType":"address","name":"asset","type":"address"},{"internalType":"uint256","name":"amount","type":"uint256"},{"internalType":"uint256","name":"premium","type":"uint256"},{"internalType":"address","name":"initiator","type":"address"},{"internalType":"bytes","name":"params","type":"bytes"}],"name":"executeOperation","outputs":[{"internalType":"bool","name":"","type":"bool"}],"stateMutability":"nonpayable","type":"function"},{"inputs":[{"internalType":"address","name":"token","type":"address"},{"internalType":"uint256","name":"amount","type":"uint256"},{"internalType":"bytes","name":"params","type":"bytes"}],"name":"initiateFlashloan","outputs":[],"stateMutability":"nonpayable","type":"function"},{"inputs":[],"name":"owner","outputs":[{"internalType":"address","name":"","type":"address"}],"stateMutability":"view","type":"function"},{"inputs":[],"name":"renounceOwnership","outputs":[],"stateMutability":"nonpayable","type":"function"},{"inputs":[],"name":"sushiSwapRouter","outputs":[{"internalType":"contract IUniswapV2Router02","name":"","type":"address"}],"stateMutability":"view","type":"function"},{"inputs":[{"internalType":"address","name":"newOwner","type":"address"}],"name":"transferOwnership","outputs":[],"stateMutability":"nonpayable","type":"function"},{"inputs":[],"name":"uniswapRouter","outputs":[{"internalType":"contract IUniswapV2Router02","name":"","type":"address"}],"stateMutability":"view","type":"function"},{"inputs":[{"internalType":"address[]","name":"tokens","type":"address[]"}],"name":"withdrawAll","outputs":[],"stateMutability":"nonpayable","type":"function"},{"inputs":[],"name":"withdrawEther","outputs":[],"stateMutability":"nonpayable","type":"function"},{"inputs":[{"internalType":"address","name":"token","type":"address"}],"name":"withdrawToken","outputs":[],"stateMutability":"nonpayable","type":"function"},{"stateMutability":"payable","type":"receive"}],"evm":{"bytecode":{"linkReferences":{},"object":"6101206040818152346200030d5760808262002217803803809162000025828562000312565b8339810103126200030d576200003b826200034c565b916020906200004c8282016200034c565b93620000686060620000608685016200034c565b93016200034c565b60008054336001600160a01b031982168117835587519893966001600160a01b039590949286929083167f8be0079c531659141344cd1fd0a4f28419497f9722a3daafe3b4186f6b6457e08680a316978815620002cb575083169384156200028757831694851562000243578316968715620001ff5790828260049360a05288519384809263026b1d5f60e01b82525afa928315620001f3578193620001af575b5050501660805260c05260e05261010091825251611eb591826200036283396080518281816103300152818161055801528181610c7101528181610dc3015281816113740152611993015260a05182610907015260c0518281816105eb01528181610f3a01528181610fde015261103b015260e05182818160df015281816112090152818161125401526112b30152518181816108c40152818161174d01526118af0152f35b9091809350813d8311620001eb575b620001ca818362000312565b81010312620001e85750620001df906200034c565b38808062000109565b80fd5b503d620001be565b508651903d90823e3d90fd5b865162461bcd60e51b815260048101849052601660248201527f496e76616c69642042616c616e636572207661756c74000000000000000000006044820152606490fd5b865162461bcd60e51b815260048101849052601460248201527f496e76616c696420537573686920726f757465720000000000000000000000006044820152606490fd5b865162461bcd60e51b815260048101849052601660248201527f496e76616c696420556e697377617020726f75746572000000000000000000006044820152606490fd5b62461bcd60e51b815260048101849052601560248201527f496e76616c696420416176652070726f766964657200000000000000000000006044820152606490fd5b600080fd5b601f909101601f19168101906001600160401b038211908210176200033657604052565b634e487b7160e01b600052604160045260246000fd5b51906001600160a01b03821682036200030d5756fe6080604081815260049182361015610022575b505050361561002057600080fd5b005b600092833560e01c9182630542975c146108f357508163158274a5146108af5781631b11d0ff1461083d5781636568a27914610677578163715018a61461061a578163735de9f7146105d65781637362377b146105875781637535d2461461054357816389476069146103ec5781638da5cb5b146103c4578163b4ee8776146102df578163b729411a146101e3578163f2fde38b14610112575063fd829a23146100cc5780610012565b3461010e578160031936011261010e57517f00000000000000000000000000000000000000000000000000000000000000006001600160a01b03168152602090f35b5080fd5b9050346101df5760203660031901126101df5761012d610936565b906101366109da565b6001600160a01b0391821692831561018d575050600054826bffffffffffffffffffffffff60a01b821617600055167f8be0079c531659141344cd1fd0a4f28419497f9722a3daafe3b4186f6b6457e0600080a380f35b906020608492519162461bcd60e51b8352820152602660248201527f4f776e61626c653a206e6577206f776e657220697320746865207a65726f206160448201526564647265737360d01b6064820152fd5b8280fd5b919050346101df57602090816003193601126102db5782356001600160401b03938482116102d75761021791369101610965565b819291019360c0838603126102d75782359081116102d757820184601f820112156102d75780359061024882610a9d565b9561025584519788610a5b565b8287528583830101116102d35795848260a0959493826102a19a01838a013787010152610283848301610951565b61028e828401610951565b825197889760c0895260c08901906109b5565b95600180871b038093169088015216908501526060810135606085015260808101356080850152013560a08301520390f35b8680fd5b8580fd5b8380fd5b919050346101df5760603660031901126101df57826102fc610936565b6044356001600160401b0381116101df5761031a9036908601610965565b9490916103256109da565b6001600160a01b03927f0000000000000000000000000000000000000000000000000000000000000000841692833b156102d75761039586928851998a97889687956310ac2ddf60e21b87523090870152166024850152602435604485015260a0606485015260a4840191610a7c565b82608483015203925af19081156103bb57506103af575080f35b6103b890610a32565b80f35b513d84823e3d90fd5b50503461010e578160031936011261010e57905490516001600160a01b039091168152602090f35b83833461010e57602090816003193601126101df57610409610936565b936104126109da565b81516370a0823160e01b81523081830152946001600160a01b0390811691908487602481865afa96871561053957869761050a575b5086156104ce578554845163a9059cbb60e01b815291166001600160a01b0316918101918252602082018790529291849184919082908890829060400103925af19081156104c55750610498578280f35b816104b792903d106104be575b6104af8183610a5b565b810190610aef565b5081808280f35b503d6104a5565b513d85823e3d90fd5b835162461bcd60e51b815280830186905260166024820152754e6f2062616c616e636520746f20776974686472617760501b6044820152606490fd5b9096508481813d8311610532575b6105228183610a5b565b810103126102d757519587610447565b503d610518565b84513d88823e3d90fd5b50503461010e578160031936011261010e57517f00000000000000000000000000000000000000000000000000000000000000006001600160a01b03168152602090f35b50503461010e578160031936011261010e576105a16109da565b8180808060018060a01b0381541647908282156105cd575bf1156105c3575080f35b51903d90823e3d90fd5b506108fc6105b9565b50503461010e578160031936011261010e57517f00000000000000000000000000000000000000000000000000000000000000006001600160a01b03168152602090f35b83346106745780600319360112610674576106336109da565b80546001600160a01b03198116825581906001600160a01b03167f8be0079c531659141344cd1fd0a4f28419497f9722a3daafe3b4186f6b6457e08280a380f35b80fd5b919050346101df57602091826003193601126102db578035926001600160401b03928385116102d757366023860112156102d757848301359384116102d7576024946005368787831b84010111610839576106d06109da565b875b8681106106dd578880f35b6001600160a01b0381831b840189013581811690819003610835576107006109da565b85516370a0823160e01b815230898201529187838c81855afa92831561082b578c936107f8575b5082156107bd578b54875163a9059cbb60e01b815291166001600160a01b03168982019081526020810193909352918791839182908e90829060400103925af180156107b357610796575b506000198114610784576001016106d2565b634e487b7160e01b8952601186528789fd5b6107ac90863d88116104be576104af8183610a5b565b5038610772565b85513d8c823e3d90fd5b865162461bcd60e51b8152808a018990526016818d0152754e6f2062616c616e636520746f20776974686472617760501b6044820152606490fd5b9092508781813d8311610824575b6108108183610a5b565b8101031261082057519138610727565b8b80fd5b503d610806565b87513d8e823e3d90fd5b8a80fd5b8780fd5b9050346101df5760a03660031901126101df57610858610936565b606435939091906001600160a01b038516850361067457608435906001600160401b038211610674575091610896602095926108a694369101610965565b9290916044359060243590610c09565b90519015158152f35b50503461010e578160031936011261010e57517f00000000000000000000000000000000000000000000000000000000000000006001600160a01b03168152602090f35b84903461010e578160031936011261010e577f00000000000000000000000000000000000000000000000000000000000000006001600160a01b03168152602090f35b600435906001600160a01b038216820361094c57565b600080fd5b35906001600160a01b038216820361094c57565b9181601f8401121561094c578235916001600160401b03831161094c576020838186019501011161094c57565b60005b8381106109a55750506000910152565b8181015183820152602001610995565b906020916109ce81518092818552858086019101610992565b601f01601f1916010190565b6000546001600160a01b031633036109ee57565b606460405162461bcd60e51b815260206004820152602060248201527f4f776e61626c653a2063616c6c6572206973206e6f7420746865206f776e65726044820152fd5b6001600160401b038111610a4557604052565b634e487b7160e01b600052604160045260246000fd5b90601f801991011681019081106001600160401b03821117610a4557604052565b908060209392818452848401376000828201840152601f01601f1916010190565b6001600160401b038111610a4557601f01601f191660200190565b51906001600160a01b038216820361094c57565b91908201809211610ad957565b634e487b7160e01b600052601160045260246000fd5b9081602091031261094c5751801515810361094c5790565b9080601f8301121561094c578135906001600160401b038211610a45578160051b60405193602093610b3b85840187610a5b565b8552838086019282010192831161094c578301905b828210610b5e575050505090565b838091610b6a84610951565b815201910190610b50565b8051821015610b895760209160051b010190565b634e487b7160e01b600052603260045260246000fd5b9291909594939560a084019084526020918285015260a0604085015282518091528160c0850193019160005b828110610bec5750505050906080919460018060a01b031660608201520152565b83516001600160a01b031685529381019392810192600101610bcb565b9594939091929360008095600080516020611e60833981519152606060405160208152601a60208201527f657865637574654f7065726174696f6e282920656e74657265640000000000006040820152a1600080516020611e60833981519152610cf6610c9e7f00000000000000000000000000000000000000000000000000000000000000006001600160a01b0316611d4b565b610ce2602e60405180936d02827a7a61030b2323932b9b99d160951b6020830152610cd28151809260208686019101610992565b810103600e810184520182610a5b565b6040519182916020835260208301906109b5565b0390a1600080516020611e60833981519152610d56610d1433611d4b565b610ce2602c60405180936b036b9b39739b2b73232b91d160a51b6020830152610d468151809260208686019101610992565b810103600c810184520182610a5b565b0390a16001600160a01b0316600080516020611e60833981519152610dbe610d7d83611d4b565b610ce2602b60405180936a034b734ba34b0ba37b91d160ad1b6020830152610dae8151809260208686019101610992565b810103600b810184520182610a5b565b0390a17f00000000000000000000000000000000000000000000000000000000000000006001600160a01b03163303611b9e573003611b5957604051635b94a08d60e11b81526020600482015260008180610e1d602482018789610a7c565b0381305afa60008060009083600095600095611aa7575b5061155857505050505050600080516020611e60833981519152606060405160208152601e60208201527f46616c6c6261636b20746f20556e69737761702f5375736869207061746800006040820152a160c082828101031261094c57610e9a82610951565b906001600160401b0390604084013582811161094c57610ebf90828601908601610b07565b9160608501351161094c57610edc90840160608501358501610b07565b91600080516020611e60833981519152606060405160208152601760208201527f5377617070696e672076696120556e69737761702e2e2e0000000000000000006040820152a160405163095ea7b360e01b81526001600160a01b037f0000000000000000000000000000000000000000000000000000000000000000811660048301526020868101356024840152919283916044918391600091165af180156114f957611539575b5080519081600019810111610ad9576024916020906001600160a01b0390610fb1906000190184610b75565b5116604051938480926370a0823160e01b82523060048301525afa9182156114f957600092611505575b507f00000000000000000000000000000000000000000000000000000000000000006001600160a01b03163b1561094c57604051635c11d79560e01b81526000818061103642308760808c013560208d013560048701610b9f565b0381837f00000000000000000000000000000000000000000000000000000000000000006001600160a01b03165af180156114f9576114e5575b508051806000198101116114d15760249291906020906001600160a01b039061109d906000190184610b75565b5116604051948580926370a0823160e01b82523060048301525afa92831561147e57889361149d575b508282810311610ad957600080516020611e608339815191526111376110ef6080880135611be3565b610ce26032604051809371022bc3832b1ba32b21036b4b727baba189d160751b60208301526111278151809260208686019101610992565b8101036012810184520182610a5b565b0390a1600080516020611e60833981519152611189611157848603611be3565b610ce2602c60405180936b020b1ba3ab0b61037baba1d160a51b6020830152610d468151809260208686019101610992565b0390a1600080516020611e60833981519152606060405160208152601560208201527429bbb0b83834b733903b34b09029bab9b43497171760591b6040820152a180519081600019810111611489576001600160a01b03916111f19160001990910190610b75565b5160405163095ea7b360e01b81526001600160a01b037f0000000000000000000000000000000000000000000000000000000000000000166004820152838503602482015291602091839160449183918d91165af1801561147e5761145f575b507f00000000000000000000000000000000000000000000000000000000000000006001600160a01b03163b156102d357906112ae8793926040519586948594635c11d79560e01b8652429360a030940135910360048701610b9f565b0381837f00000000000000000000000000000000000000000000000000000000000000006001600160a01b03165af1801561145457908491611440575b5050906112f791610acc565b6040516370a0823160e01b8152306004820152936001600160a01b031690602085602481855afa80156114355783949584916113fa575b50916113b8917f651936005c982c0b3f3983ba19c8856f83424e346da1b64243c8d974a3899b34604060209581519081528387820152a160405163095ea7b360e01b81527f00000000000000000000000000000000000000000000000000000000000000006001600160a01b03166004820152602481019190915294859283919082906044820190565b03925af19081156113ee57506113cf575b50600190565b6113e79060203d6020116104be576104af8183610a5b565b50386113c9565b604051903d90823e3d90fd5b91929350506020813d60201161142d575b8161141860209383610a5b565b8101031261094c5751839291906113b861132e565b3d915061140b565b6040513d85823e3d90fd5b61144990610a32565b6101df5782386112eb565b6040513d86823e3d90fd5b6114779060203d6020116104be576104af8183610a5b565b5038611251565b6040513d8a823e3d90fd5b634e487b7160e01b89526011600452602489fd5b9092506020813d6020116114c9575b816114b960209383610a5b565b8101031261094c575191386110c6565b3d91506114ac565b634e487b7160e01b88526011600452602488fd5b6114f0919750610a32565b60009538611070565b6040513d6000823e3d90fd5b9091506020813d602011611531575b8161152160209383610a5b565b8101031261094c57519038610fdb565b3d9150611514565b6115519060203d6020116104be576104af8183610a5b565b5038610f85565b8092959c9a5060209194999897507f9e73ce1e99df7d45bc513893badf42bc38069f1564ee511b0c8988f72f127b13939650519101201461159c5750505050505050565b909192939495969750600080516020611e60833981519152606060405160208152601760208201527f42616c616e63657220726f7574652064657465637465640000000000000000006040820152a1600080516020611e60833981519152606060405160208152601c60208201527f496e73696465205f62616c616e6365725377617053696e676c652829000000006040820152a1604051958660c08101106001600160401b0360c089011117610a455760c0870160405286526000602087015260018060a01b038216604087015260018060a01b031660608601528260808601526040518060208101106001600160401b03602083011117610a4557602081016040526000815260a0860152604051908160808101106001600160401b03608084011117610a4557608082016040523082526000602083015230604083015260006060830152600080516020611e60833981519152608060405160208152602460208201527f417070726f76696e6720746f6b656e496e20666f722042616c616e6365722056604082015263185d5b1d60e21b6060820152a160405163095ea7b360e01b81526001600160a01b037f00000000000000000000000000000000000000000000000000000000000000008116600483015260248201869052909160209183916044918391600091165af180156114f957611a88575b50600080516020611e60833981519152606060405160208152601c60208201527f43616c6c696e672062616c616e6365725661756c742e737761702829000000006040820152a1604051946352bbbe2960e01b865260e06004870152805160e48701526020810151916002831015611a7257602093606061186160a08a96958796610104880152600180831b03604082015116610124880152600180831b0384820151166101448801526080810151610164880152015160c06101848701526101a48601906109b5565b83516001600160a01b039081166024870152878501511515604487015260408501518116606487015291909301511515608485015260a48401919091524260c48401529190039082906000907f0000000000000000000000000000000000000000000000000000000000000000165af19283156114f957600093611a1e575b507ffa494fc6b2615d7ccd02dfa90340c36ed4b7cac6672b2e19b91b468cc4321d34602061191494604051908152a1610acc565b6040516370a0823160e01b81523060048201526001600160a01b0390921691602081602481865afa9081156114f9576000916119eb575b506000926020927f651936005c982c0b3f3983ba19c8856f83424e346da1b64243c8d974a3899b3460406119d79481519081528387820152a160405163095ea7b360e01b81527f00000000000000000000000000000000000000000000000000000000000000006001600160a01b03166004820152602481019190915293849283919082906044820190565b03925af180156114f9576113cf5750600190565b90506020813d602011611a16575b81611a0660209383610a5b565b8101031261094c5751600061194b565b3d91506119f9565b92506020833d602011611a6a575b81611a3960209383610a5b565b8101031261094c579151917ffa494fc6b2615d7ccd02dfa90340c36ed4b7cac6672b2e19b91b468cc4321d346118e0565b3d9150611a2c565b634e487b7160e01b600052602160045260246000fd5b611aa09060203d6020116104be576104af8183610a5b565b5038611797565b955093505050503d91826000823e611abf8382610a5b565b60c081848101031261094c5780516001600160401b03811161094c57838201601f82840101121561094c5780820151611af781610a9d565b94611b056040519687610a5b565b818652830160208284860101011161094c57611b2991602080870191850101610992565b611b3560208201610ab8565b90611b4260408201610ab8565b916080606083015192015194909291949338610e34565b60405162461bcd60e51b815260206004820152601960248201527f4f6e6c7920696e6974696174656420696e7465726e616c6c79000000000000006044820152606490fd5b60405162461bcd60e51b815260206004820152601a60248201527f4f6e6c792063616c6c61626c65206279204161766520706f6f6c0000000000006044820152606490fd5b806000917a184f03e93ff9f4daa797ed6e38ed64bf6a1f01000000000000000080821015611d3d575b506d04ee2d6d415b85acef810000000080831015611d2e575b50662386f26fc1000080831015611d1f575b506305f5e10080831015611d10575b5061271080831015611d01575b506064821015611cf1575b600a80921015611ce7575b60019081602181860195611c7c87610a9d565b96611c8a6040519889610a5b565b808852611c99601f1991610a9d565b01366020890137860101905b611cb1575b5050505090565b600019019083906f181899199a1a9b1b9c1cb0b131b232b360811b8282061a835304918215611ce257919082611ca5565b611caa565b9160010191611c69565b9190606460029104910191611c5e565b60049193920491019138611c53565b60089193920491019138611c46565b60109193920491019138611c37565b60209193920491019138611c25565b604093508104915038611c0c565b60405190606082018281106001600160401b03821117610a4557604052602a82526020908183016040368237835115610b8957603090538251600190811015610b8957607860218501536029905b808211611ded575050611daa575090565b6064906040519062461bcd60e51b825280600483015260248201527f537472696e67733a20686578206c656e67746820696e73756666696369656e746044820152fd5b9091600f81166010811015611e4a578551841015611e4a576f181899199a1a9b1b9c1cb0b131b232b360811b901a85840185015360041c918015611e35576000190190611d99565b60246000634e487b7160e01b81526011600452fd5b60246000634e487b7160e01b81526032600452fdfe3fa2b003dcc5b55511f01e76d1059a2da17c0112d013f01896e70e37bb3f3d57a2646970667358221220066884072642f97c7356b85c6e6968a1f94174c41cdfe76a1d0663e5086033db64736f6c63430008140033","opcodes":"PUSH2 0x120 PUSH1 0x40 DUP2 DUP2 MSTORE CALLVALUE PUSH3 0x30D JUMPI PUSH1 0x80 DUP3 PUSH3 0x2217 DUP1 CODESIZE SUB DUP1 SWAP2 PUSH3 0x25 DUP3 DUP6 PUSH3 0x312 JUMP JUMPDEST DUP4 CODECOPY DUP2 ADD SUB SLT PUSH3 0x30D JUMPI PUSH3 0x3B DUP3 PUSH3 0x34C JUMP JUMPDEST SWAP2 PUSH1 0x20 SWAP1 PUSH3 0x4C DUP3 DUP3 ADD PUSH3 0x34C JUMP JUMPDEST SWAP4 PUSH3 0x68 PUSH1 0x60 PUSH3 0x60 DUP7 DUP6 ADD PUSH3 0x34C JUMP JUMPDEST SWAP4 ADD PUSH3 0x34C JUMP JUMPDEST PUSH1 0x0 DUP1 SLOAD CALLER PUSH1 0x1 PUSH1 0x1 PUSH1 0xA0 SHL SUB NOT DUP3 AND DUP2 OR DUP4 SSTORE DUP8 MLOAD SWAP9 SWAP4 SWAP7 PUSH1 0x1 PUSH1 0x1 PUSH1 0xA0 SHL SUB SWAP6 SWAP1 SWAP5 SWAP3 DUP7 SWAP3 SWAP1 DUP4 AND PUSH32 0x8BE0079C531659141344CD1FD0A4F28419497F9722A3DAAFE3B4186F6B6457E0 DUP7 DUP1 LOG3 AND SWAP8 DUP9 ISZERO PUSH3 0x2CB JUMPI POP DUP4 AND SWAP4 DUP5 ISZERO PUSH3 0x287 JUMPI DUP4 AND SWAP5 DUP6 ISZERO PUSH3 0x243 JUMPI DUP4 AND SWAP7 DUP8 ISZERO PUSH3 0x1FF JUMPI SWAP1 DUP3 DUP3 PUSH1 0x4 SWAP4 PUSH1 0xA0 MSTORE DUP9 MLOAD SWAP4 DUP5 DUP1 SWAP3 PUSH4 0x26B1D5F PUSH1 0xE0 SHL DUP3 MSTORE GAS STATICCALL SWAP3 DUP4 ISZERO PUSH3 0x1F3 JUMPI DUP2 SWAP4 PUSH3 0x1AF JUMPI JUMPDEST POP POP POP AND PUSH1 0x80 MSTORE PUSH1 0xC0 MSTORE PUSH1 0xE0 MSTORE PUSH2 0x100 SWAP2 DUP3 MSTORE MLOAD PUSH2 0x1EB5 SWAP2 DUP3 PUSH3 0x362 DUP4 CODECOPY PUSH1 0x80 MLOAD DUP3 DUP2 DUP2 PUSH2 0x330 ADD MSTORE DUP2 DUP2 PUSH2 0x558 ADD MSTORE DUP2 DUP2 PUSH2 0xC71 ADD MSTORE DUP2 DUP2 PUSH2 0xDC3 ADD MSTORE DUP2 DUP2 PUSH2 0x1374 ADD MSTORE PUSH2 0x1993 ADD MSTORE PUSH1 0xA0 MLOAD DUP3 PUSH2 0x907 ADD MSTORE PUSH1 0xC0 MLOAD DUP3 DUP2 DUP2 PUSH2 0x5EB ADD MSTORE DUP2 DUP2 PUSH2 0xF3A ADD MSTORE DUP2 DUP2 PUSH2 0xFDE ADD MSTORE PUSH2 0x103B ADD MSTORE PUSH1 0xE0 MLOAD DUP3 DUP2 DUP2 PUSH1 0xDF ADD MSTORE DUP2 DUP2 PUSH2 0x1209 ADD MSTORE DUP2 DUP2 PUSH2 0x1254 ADD MSTORE PUSH2 0x12B3 ADD MSTORE MLOAD DUP2 DUP2 DUP2 PUSH2 0x8C4 ADD MSTORE DUP2 DUP2 PUSH2 0x174D ADD MSTORE PUSH2 0x18AF ADD MSTORE RETURN JUMPDEST SWAP1 SWAP2 DUP1 SWAP4 POP DUP2 RETURNDATASIZE DUP4 GT PUSH3 0x1EB JUMPI JUMPDEST PUSH3 0x1CA DUP2 DUP4 PUSH3 0x312 JUMP JUMPDEST DUP2 ADD SUB SLT PUSH3 0x1E8 JUMPI POP PUSH3 0x1DF SWAP1 PUSH3 0x34C JUMP JUMPDEST CODESIZE DUP1 DUP1 PUSH3 0x109 JUMP JUMPDEST DUP1 REVERT JUMPDEST POP RETURNDATASIZE PUSH3 0x1BE JUMP JUMPDEST POP DUP7 MLOAD SWAP1 RETURNDATASIZE SWAP1 DUP3 RETURNDATACOPY RETURNDATASIZE SWAP1 REVERT JUMPDEST DUP7 MLOAD PUSH3 0x461BCD PUSH1 0xE5 SHL DUP2 MSTORE PUSH1 0x4 DUP2 ADD DUP5 SWAP1 MSTORE PUSH1 0x16 PUSH1 0x24 DUP3 ADD MSTORE PUSH32 0x496E76616C69642042616C616E636572207661756C7400000000000000000000 PUSH1 0x44 DUP3 ADD MSTORE PUSH1 0x64 SWAP1 REVERT JUMPDEST DUP7 MLOAD PUSH3 0x461BCD PUSH1 0xE5 SHL DUP2 MSTORE PUSH1 0x4 DUP2 ADD DUP5 SWAP1 MSTORE PUSH1 0x14 PUSH1 0x24 DUP3 ADD MSTORE PUSH32 0x496E76616C696420537573686920726F75746572000000000000000000000000 PUSH1 0x44 DUP3 ADD MSTORE PUSH1 0x64 SWAP1 REVERT JUMPDEST DUP7 MLOAD PUSH3 0x461BCD PUSH1 0xE5 SHL DUP2 MSTORE PUSH1 0x4 DUP2 ADD DUP5 SWAP1 MSTORE PUSH1 0x16 PUSH1 0x24 DUP3 ADD MSTORE PUSH32 0x496E76616C696420556E697377617020726F7574657200000000000000000000 PUSH1 0x44 DUP3 ADD MSTORE PUSH1 0x64 SWAP1 REVERT JUMPDEST PUSH3 0x461BCD PUSH1 0xE5 SHL DUP2 MSTORE PUSH1 0x4 DUP2 ADD DUP5 SWAP1 MSTORE PUSH1 0x15 PUSH1 0x24 DUP3 ADD MSTORE PUSH32 0x496E76616C696420416176652070726F76696465720000000000000000000000 PUSH1 0x44 DUP3 ADD MSTORE PUSH1 0x64 SWAP1 REVERT JUMPDEST PUSH1 0x0 DUP1 REVERT JUMPDEST PUSH1 0x1F SWAP1 SWAP2 ADD PUSH1 0x1F NOT AND DUP2 ADD SWAP1 PUSH1 0x1 PUSH1 0x1 PUSH1 0x40 SHL SUB DUP3 GT SWAP1 DUP3 LT OR PUSH3 0x336 JUMPI PUSH1 0x40 MSTORE JUMP JUMPDEST PUSH4 0x4E487B71 PUSH1 0xE0 SHL PUSH1 0x0 MSTORE PUSH1 0x41 PUSH1 0x4 MSTORE PUSH1 0x24 PUSH1 0x0 REVERT JUMPDEST MLOAD SWAP1 PUSH1 0x1 PUSH1 0x1 PUSH1 0xA0 SHL SUB DUP3 AND DUP3 SUB PUSH3 0x30D JUMPI JUMP INVALID PUSH1 0x80 PUSH1 0x40 DUP2 DUP2 MSTORE PUSH1 0x4 SWAP2 DUP3 CALLDATASIZE LT ISZERO PUSH2 0x22 JUMPI JUMPDEST POP POP POP CALLDATASIZE ISZERO PUSH2 0x20 JUMPI PUSH1 0x0 DUP1 REVERT JUMPDEST STOP JUMPDEST PUSH1 0x0 SWAP3 DUP4 CALLDATALOAD PUSH1 0xE0 SHR SWAP2 DUP3 PUSH4 0x542975C EQ PUSH2 0x8F3 JUMPI POP DUP2 PUSH4 0x158274A5 EQ PUSH2 0x8AF JUMPI DUP2 PUSH4 0x1B11D0FF EQ PUSH2 0x83D JUMPI DUP2 PUSH4 0x6568A279 EQ PUSH2 0x677 JUMPI DUP2 PUSH4 0x715018A6 EQ PUSH2 0x61A JUMPI DUP2 PUSH4 0x735DE9F7 EQ PUSH2 0x5D6 JUMPI DUP2 PUSH4 0x7362377B EQ PUSH2 0x587 JUMPI DUP2 PUSH4 0x7535D246 EQ PUSH2 0x543 JUMPI DUP2 PUSH4 0x89476069 EQ PUSH2 0x3EC JUMPI DUP2 PUSH4 0x8DA5CB5B EQ PUSH2 0x3C4 JUMPI DUP2 PUSH4 0xB4EE8776 EQ PUSH2 0x2DF JUMPI DUP2 PUSH4 0xB729411A EQ PUSH2 0x1E3 JUMPI DUP2 PUSH4 0xF2FDE38B EQ PUSH2 0x112 JUMPI POP PUSH4 0xFD829A23 EQ PUSH2 0xCC JUMPI DUP1 PUSH2 0x12 JUMP JUMPDEST CALLVALUE PUSH2 0x10E JUMPI DUP2 PUSH1 0x3 NOT CALLDATASIZE ADD SLT PUSH2 0x10E JUMPI MLOAD PUSH32 0x0 PUSH1 0x1 PUSH1 0x1 PUSH1 0xA0 SHL SUB AND DUP2 MSTORE PUSH1 0x20 SWAP1 RETURN JUMPDEST POP DUP1 REVERT JUMPDEST SWAP1 POP CALLVALUE PUSH2 0x1DF JUMPI PUSH1 0x20 CALLDATASIZE PUSH1 0x3 NOT ADD SLT PUSH2 0x1DF JUMPI PUSH2 0x12D PUSH2 0x936 JUMP JUMPDEST SWAP1 PUSH2 0x136 PUSH2 0x9DA JUMP JUMPDEST PUSH1 0x1 PUSH1 0x1 PUSH1 0xA0 SHL SUB SWAP2 DUP3 AND SWAP3 DUP4 ISZERO PUSH2 0x18D JUMPI POP POP PUSH1 0x0 SLOAD DUP3 PUSH12 0xFFFFFFFFFFFFFFFFFFFFFFFF PUSH1 0xA0 SHL DUP3 AND OR PUSH1 0x0 SSTORE AND PUSH32 0x8BE0079C531659141344CD1FD0A4F28419497F9722A3DAAFE3B4186F6B6457E0 PUSH1 0x0 DUP1 LOG3 DUP1 RETURN JUMPDEST SWAP1 PUSH1 0x20 PUSH1 0x84 SWAP3 MLOAD SWAP2 PUSH3 0x461BCD PUSH1 0xE5 SHL DUP4 MSTORE DUP3 ADD MSTORE PUSH1 0x26 PUSH1 0x24 DUP3 ADD MSTORE PUSH32 0x4F776E61626C653A206E6577206F776E657220697320746865207A65726F2061 PUSH1 0x44 DUP3 ADD MSTORE PUSH6 0x646472657373 PUSH1 0xD0 SHL PUSH1 0x64 DUP3 ADD MSTORE REVERT JUMPDEST DUP3 DUP1 REVERT JUMPDEST SWAP2 SWAP1 POP CALLVALUE PUSH2 0x1DF JUMPI PUSH1 0x20 SWAP1 DUP2 PUSH1 0x3 NOT CALLDATASIZE ADD SLT PUSH2 0x2DB JUMPI DUP3 CALLDATALOAD PUSH1 0x1 PUSH1 0x1 PUSH1 0x40 SHL SUB SWAP4 DUP5 DUP3 GT PUSH2 0x2D7 JUMPI PUSH2 0x217 SWAP2 CALLDATASIZE SWAP2 ADD PUSH2 0x965 JUMP JUMPDEST DUP2 SWAP3 SWAP2 ADD SWAP4 PUSH1 0xC0 DUP4 DUP7 SUB SLT PUSH2 0x2D7 JUMPI DUP3 CALLDATALOAD SWAP1 DUP2 GT PUSH2 0x2D7 JUMPI DUP3 ADD DUP5 PUSH1 0x1F DUP3 ADD SLT ISZERO PUSH2 0x2D7 JUMPI DUP1 CALLDATALOAD SWAP1 PUSH2 0x248 DUP3 PUSH2 0xA9D JUMP JUMPDEST SWAP6 PUSH2 0x255 DUP5 MLOAD SWAP8 DUP9 PUSH2 0xA5B JUMP JUMPDEST DUP3 DUP8 MSTORE DUP6 DUP4 DUP4 ADD ADD GT PUSH2 0x2D3 JUMPI SWAP6 DUP5 DUP3 PUSH1 0xA0 SWAP6 SWAP5 SWAP4 DUP3 PUSH2 0x2A1 SWAP11 ADD DUP4 DUP11 ADD CALLDATACOPY DUP8 ADD ADD MSTORE PUSH2 0x283 DUP5 DUP4 ADD PUSH2 0x951 JUMP JUMPDEST PUSH2 0x28E DUP3 DUP5 ADD PUSH2 0x951 JUMP JUMPDEST DUP3 MLOAD SWAP8 DUP9 SWAP8 PUSH1 0xC0 DUP10 MSTORE PUSH1 0xC0 DUP10 ADD SWAP1 PUSH2 0x9B5 JUMP JUMPDEST SWAP6 PUSH1 0x1 DUP1 DUP8 SHL SUB DUP1 SWAP4 AND SWAP1 DUP9 ADD MSTORE AND SWAP1 DUP6 ADD MSTORE PUSH1 0x60 DUP2 ADD CALLDATALOAD PUSH1 0x60 DUP6 ADD MSTORE PUSH1 0x80 DUP2 ADD CALLDATALOAD PUSH1 0x80 DUP6 ADD MSTORE ADD CALLDATALOAD PUSH1 0xA0 DUP4 ADD MSTORE SUB SWAP1 RETURN JUMPDEST DUP7 DUP1 REVERT JUMPDEST DUP6 DUP1 REVERT JUMPDEST DUP4 DUP1 REVERT JUMPDEST SWAP2 SWAP1 POP CALLVALUE PUSH2 0x1DF JUMPI PUSH1 0x60 CALLDATASIZE PUSH1 0x3 NOT ADD SLT PUSH2 0x1DF JUMPI DUP3 PUSH2 0x2FC PUSH2 0x936 JUMP JUMPDEST PUSH1 0x44 CALLDATALOAD PUSH1 0x1 PUSH1 0x1 PUSH1 0x40 SHL SUB DUP2 GT PUSH2 0x1DF JUMPI PUSH2 0x31A SWAP1 CALLDATASIZE SWAP1 DUP7 ADD PUSH2 0x965 JUMP JUMPDEST SWAP5 SWAP1 SWAP2 PUSH2 0x325 PUSH2 0x9DA JUMP JUMPDEST PUSH1 0x1 PUSH1 0x1 PUSH1 0xA0 SHL SUB SWAP3 PUSH32 0x0 DUP5 AND SWAP3 DUP4 EXTCODESIZE ISZERO PUSH2 0x2D7 JUMPI PUSH2 0x395 DUP7 SWAP3 DUP9 MLOAD SWAP10 DUP11 SWAP8 DUP9 SWAP7 DUP8 SWAP6 PUSH4 0x10AC2DDF PUSH1 0xE2 SHL DUP8 MSTORE ADDRESS SWAP1 DUP8 ADD MSTORE AND PUSH1 0x24 DUP6 ADD MSTORE PUSH1 0x24 CALLDATALOAD PUSH1 0x44 DUP6 ADD MSTORE PUSH1 0xA0 PUSH1 0x64 DUP6 ADD MSTORE PUSH1 0xA4 DUP5 ADD SWAP2 PUSH2 0xA7C JUMP JUMPDEST DUP3 PUSH1 0x84 DUP4 ADD MSTORE SUB SWAP3 GAS CALL SWAP1 DUP2 ISZERO PUSH2 0x3BB JUMPI POP PUSH2 0x3AF JUMPI POP DUP1 RETURN JUMPDEST PUSH2 0x3B8 SWAP1 PUSH2 0xA32 JUMP JUMPDEST DUP1 RETURN JUMPDEST MLOAD RETURNDATASIZE DUP5 DUP3 RETURNDATACOPY RETURNDATASIZE SWAP1 REVERT JUMPDEST POP POP CALLVALUE PUSH2 0x10E JUMPI DUP2 PUSH1 0x3 NOT CALLDATASIZE ADD SLT PUSH2 0x10E JUMPI SWAP1 SLOAD SWAP1 MLOAD PUSH1 0x1 PUSH1 0x1 PUSH1 0xA0 SHL SUB SWAP1 SWAP2 AND DUP2 MSTORE PUSH1 0x20 SWAP1 RETURN JUMPDEST DUP4 DUP4 CALLVALUE PUSH2 0x10E JUMPI PUSH1 0x20 SWAP1 DUP2 PUSH1 0x3 NOT CALLDATASIZE ADD SLT PUSH2 0x1DF JUMPI PUSH2 0x409 PUSH2 0x936 JUMP JUMPDEST SWAP4 PUSH2 0x412 PUSH2 0x9DA JUMP JUMPDEST DUP2 MLOAD PUSH4 0x70A08231 PUSH1 0xE0 SHL DUP2 MSTORE ADDRESS DUP2 DUP4 ADD MSTORE SWAP5 PUSH1 0x1 PUSH1 0x1 PUSH1 0xA0 SHL SUB SWAP1 DUP2 AND SWAP2 SWAP1 DUP5 DUP8 PUSH1 0x24 DUP2 DUP7 GAS STATICCALL SWAP7 DUP8 ISZERO PUSH2 0x539 JUMPI DUP7 SWAP8 PUSH2 0x50A JUMPI JUMPDEST POP DUP7 ISZERO PUSH2 0x4CE JUMPI DUP6 SLOAD DUP5 MLOAD PUSH4 0xA9059CBB PUSH1 0xE0 SHL DUP2 MSTORE SWAP2 AND PUSH1 0x1 PUSH1 0x1 PUSH1 0xA0 SHL SUB AND SWAP2 DUP2 ADD SWAP2 DUP3 MSTORE PUSH1 0x20 DUP3 ADD DUP8 SWAP1 MSTORE SWAP3 SWAP2 DUP5 SWAP2 DUP5 SWAP2 SWAP1 DUP3 SWAP1 DUP9 SWAP1 DUP3 SWAP1 PUSH1 0x40 ADD SUB SWAP3 GAS CALL SWAP1 DUP2 ISZERO PUSH2 0x4C5 JUMPI POP PUSH2 0x498 JUMPI DUP3 DUP1 RETURN JUMPDEST DUP2 PUSH2 0x4B7 SWAP3 SWAP1 RETURNDATASIZE LT PUSH2 0x4BE JUMPI JUMPDEST PUSH2 0x4AF DUP2 DUP4 PUSH2 0xA5B JUMP JUMPDEST DUP2 ADD SWAP1 PUSH2 0xAEF JUMP JUMPDEST POP DUP2 DUP1 DUP3 DUP1 RETURN JUMPDEST POP RETURNDATASIZE PUSH2 0x4A5 JUMP JUMPDEST MLOAD RETURNDATASIZE DUP6 DUP3 RETURNDATACOPY RETURNDATASIZE SWAP1 REVERT JUMPDEST DUP4 MLOAD PUSH3 0x461BCD PUSH1 0xE5 SHL DUP2 MSTORE DUP1 DUP4 ADD DUP7 SWAP1 MSTORE PUSH1 0x16 PUSH1 0x24 DUP3 ADD MSTORE PUSH22 0x4E6F2062616C616E636520746F207769746864726177 PUSH1 0x50 SHL PUSH1 0x44 DUP3 ADD MSTORE PUSH1 0x64 SWAP1 REVERT JUMPDEST SWAP1 SWAP7 POP DUP5 DUP2 DUP2 RETURNDATASIZE DUP4 GT PUSH2 0x532 JUMPI JUMPDEST PUSH2 0x522 DUP2 DUP4 PUSH2 0xA5B JUMP JUMPDEST DUP2 ADD SUB SLT PUSH2 0x2D7 JUMPI MLOAD SWAP6 DUP8 PUSH2 0x447 JUMP JUMPDEST POP RETURNDATASIZE PUSH2 0x518 JUMP JUMPDEST DUP5 MLOAD RETURNDATASIZE DUP9 DUP3 RETURNDATACOPY RETURNDATASIZE SWAP1 REVERT JUMPDEST POP POP CALLVALUE PUSH2 0x10E JUMPI DUP2 PUSH1 0x3 NOT CALLDATASIZE ADD SLT PUSH2 0x10E JUMPI MLOAD PUSH32 0x0 PUSH1 0x1 PUSH1 0x1 PUSH1 0xA0 SHL SUB AND DUP2 MSTORE PUSH1 0x20 SWAP1 RETURN JUMPDEST POP POP CALLVALUE PUSH2 0x10E JUMPI DUP2 PUSH1 0x3 NOT CALLDATASIZE ADD SLT PUSH2 0x10E JUMPI PUSH2 0x5A1 PUSH2 0x9DA JUMP JUMPDEST DUP2 DUP1 DUP1 DUP1 PUSH1 0x1 DUP1 PUSH1 0xA0 SHL SUB DUP2 SLOAD AND SELFBALANCE SWAP1 DUP3 DUP3 ISZERO PUSH2 0x5CD JUMPI JUMPDEST CALL ISZERO PUSH2 0x5C3 JUMPI POP DUP1 RETURN JUMPDEST MLOAD SWAP1 RETURNDATASIZE SWAP1 DUP3 RETURNDATACOPY RETURNDATASIZE SWAP1 REVERT JUMPDEST POP PUSH2 0x8FC PUSH2 0x5B9 JUMP JUMPDEST POP POP CALLVALUE PUSH2 0x10E JUMPI DUP2 PUSH1 0x3 NOT CALLDATASIZE ADD SLT PUSH2 0x10E JUMPI MLOAD PUSH32 0x0 PUSH1 0x1 PUSH1 0x1 PUSH1 0xA0 SHL SUB AND DUP2 MSTORE PUSH1 0x20 SWAP1 RETURN JUMPDEST DUP4 CALLVALUE PUSH2 0x674 JUMPI DUP1 PUSH1 0x3 NOT CALLDATASIZE ADD SLT PUSH2 0x674 JUMPI PUSH2 0x633 PUSH2 0x9DA JUMP JUMPDEST DUP1 SLOAD PUSH1 0x1 PUSH1 0x1 PUSH1 0xA0 SHL SUB NOT DUP2 AND DUP3 SSTORE DUP2 SWAP1 PUSH1 0x1 PUSH1 0x1 PUSH1 0xA0 SHL SUB AND PUSH32 0x8BE0079C531659141344CD1FD0A4F28419497F9722A3DAAFE3B4186F6B6457E0 DUP3 DUP1 LOG3 DUP1 RETURN JUMPDEST DUP1 REVERT JUMPDEST SWAP2 SWAP1 POP CALLVALUE PUSH2 0x1DF JUMPI PUSH1 0x20 SWAP2 DUP3 PUSH1 0x3 NOT CALLDATASIZE ADD SLT PUSH2 0x2DB JUMPI DUP1 CALLDATALOAD SWAP3 PUSH1 0x1 PUSH1 0x1 PUSH1 0x40 SHL SUB SWAP3 DUP4 DUP6 GT PUSH2 0x2D7 JUMPI CALLDATASIZE PUSH1 0x23 DUP7 ADD SLT ISZERO PUSH2 0x2D7 JUMPI DUP5 DUP4 ADD CALLDATALOAD SWAP4 DUP5 GT PUSH2 0x2D7 JUMPI PUSH1 0x24 SWAP5 PUSH1 0x5 CALLDATASIZE DUP8 DUP8 DUP4 SHL DUP5 ADD ADD GT PUSH2 0x839 JUMPI PUSH2 0x6D0 PUSH2 0x9DA JUMP JUMPDEST DUP8 JUMPDEST DUP7 DUP2 LT PUSH2 0x6DD JUMPI DUP9 DUP1 RETURN JUMPDEST PUSH1 0x1 PUSH1 0x1 PUSH1 0xA0 SHL SUB DUP2 DUP4 SHL DUP5 ADD DUP10 ADD CALLDATALOAD DUP2 DUP2 AND SWAP1 DUP2 SWAP1 SUB PUSH2 0x835 JUMPI PUSH2 0x700 PUSH2 0x9DA JUMP JUMPDEST DUP6 MLOAD PUSH4 0x70A08231 PUSH1 0xE0 SHL DUP2 MSTORE ADDRESS DUP10 DUP3 ADD MSTORE SWAP2 DUP8 DUP4 DUP13 DUP2 DUP6 GAS STATICCALL SWAP3 DUP4 ISZERO PUSH2 0x82B JUMPI DUP13 SWAP4 PUSH2 0x7F8 JUMPI JUMPDEST POP DUP3 ISZERO PUSH2 0x7BD JUMPI DUP12 SLOAD DUP8 MLOAD PUSH4 0xA9059CBB PUSH1 0xE0 SHL DUP2 MSTORE SWAP2 AND PUSH1 0x1 PUSH1 0x1 PUSH1 0xA0 SHL SUB AND DUP10 DUP3 ADD SWAP1 DUP2 MSTORE PUSH1 0x20 DUP2 ADD SWAP4 SWAP1 SWAP4 MSTORE SWAP2 DUP8 SWAP2 DUP4 SWAP2 DUP3 SWAP1 DUP15 SWAP1 DUP3 SWAP1 PUSH1 0x40 ADD SUB SWAP3 GAS CALL DUP1 ISZERO PUSH2 0x7B3 JUMPI PUSH2 0x796 JUMPI JUMPDEST POP PUSH1 0x0 NOT DUP2 EQ PUSH2 0x784 JUMPI PUSH1 0x1 ADD PUSH2 0x6D2 JUMP JUMPDEST PUSH4 0x4E487B71 PUSH1 0xE0 SHL DUP10 MSTORE PUSH1 0x11 DUP7 MSTORE DUP8 DUP10 REVERT JUMPDEST PUSH2 0x7AC SWAP1 DUP7 RETURNDATASIZE DUP9 GT PUSH2 0x4BE JUMPI PUSH2 0x4AF DUP2 DUP4 PUSH2 0xA5B JUMP JUMPDEST POP CODESIZE PUSH2 0x772 JUMP JUMPDEST DUP6 MLOAD RETURNDATASIZE DUP13 DUP3 RETURNDATACOPY RETURNDATASIZE SWAP1 REVERT JUMPDEST DUP7 MLOAD PUSH3 0x461BCD PUSH1 0xE5 SHL DUP2 MSTORE DUP1 DUP11 ADD DUP10 SWAP1 MSTORE PUSH1 0x16 DUP2 DUP14 ADD MSTORE PUSH22 0x4E6F2062616C616E636520746F207769746864726177 PUSH1 0x50 SHL PUSH1 0x44 DUP3 ADD MSTORE PUSH1 0x64 SWAP1 REVERT JUMPDEST SWAP1 SWAP3 POP DUP8 DUP2 DUP2 RETURNDATASIZE DUP4 GT PUSH2 0x824 JUMPI JUMPDEST PUSH2 0x810 DUP2 DUP4 PUSH2 0xA5B JUMP JUMPDEST DUP2 ADD SUB SLT PUSH2 0x820 JUMPI MLOAD SWAP2 CODESIZE PUSH2 0x727 JUMP JUMPDEST DUP12 DUP1 REVERT JUMPDEST POP RETURNDATASIZE PUSH2 0x806 JUMP JUMPDEST DUP8 MLOAD RETURNDATASIZE DUP15 DUP3 RETURNDATACOPY RETURNDATASIZE SWAP1 REVERT JUMPDEST DUP11 DUP1 REVERT JUMPDEST DUP8 DUP1 REVERT JUMPDEST SWAP1 POP CALLVALUE PUSH2 0x1DF JUMPI PUSH1 0xA0 CALLDATASIZE PUSH1 0x3 NOT ADD SLT PUSH2 0x1DF JUMPI PUSH2 0x858 PUSH2 0x936 JUMP JUMPDEST PUSH1 0x64 CALLDATALOAD SWAP4 SWAP1 SWAP2 SWAP1 PUSH1 0x1 PUSH1 0x1 PUSH1 0xA0 SHL SUB DUP6 AND DUP6 SUB PUSH2 0x674 JUMPI PUSH1 0x84 CALLDATALOAD SWAP1 PUSH1 0x1 PUSH1 0x1 PUSH1 0x40 SHL SUB DUP3 GT PUSH2 0x674 JUMPI POP SWAP2 PUSH2 0x896 PUSH1 0x20 SWAP6 SWAP3 PUSH2 0x8A6 SWAP5 CALLDATASIZE SWAP2 ADD PUSH2 0x965 JUMP JUMPDEST SWAP3 SWAP1 SWAP2 PUSH1 0x44 CALLDATALOAD SWAP1 PUSH1 0x24 CALLDATALOAD SWAP1 PUSH2 0xC09 JUMP JUMPDEST SWAP1 MLOAD SWAP1 ISZERO ISZERO DUP2 MSTORE RETURN JUMPDEST POP POP CALLVALUE PUSH2 0x10E JUMPI DUP2 PUSH1 0x3 NOT CALLDATASIZE ADD SLT PUSH2 0x10E JUMPI MLOAD PUSH32 0x0 PUSH1 0x1 PUSH1 0x1 PUSH1 0xA0 SHL SUB AND DUP2 MSTORE PUSH1 0x20 SWAP1 RETURN JUMPDEST DUP5 SWAP1 CALLVALUE PUSH2 0x10E JUMPI DUP2 PUSH1 0x3 NOT CALLDATASIZE ADD SLT PUSH2 0x10E JUMPI PUSH32 0x0 PUSH1 0x1 PUSH1 0x1 PUSH1 0xA0 SHL SUB AND DUP2 MSTORE PUSH1 0x20 SWAP1 RETURN JUMPDEST PUSH1 0x4 CALLDATALOAD SWAP1 PUSH1 0x1 PUSH1 0x1 PUSH1 0xA0 SHL SUB DUP3 AND DUP3 SUB PUSH2 0x94C JUMPI JUMP JUMPDEST PUSH1 0x0 DUP1 REVERT JUMPDEST CALLDATALOAD SWAP1 PUSH1 0x1 PUSH1 0x1 PUSH1 0xA0 SHL SUB DUP3 AND DUP3 SUB PUSH2 0x94C JUMPI JUMP JUMPDEST SWAP2 DUP2 PUSH1 0x1F DUP5 ADD SLT ISZERO PUSH2 0x94C JUMPI DUP3 CALLDATALOAD SWAP2 PUSH1 0x1 PUSH1 0x1 PUSH1 0x40 SHL SUB DUP4 GT PUSH2 0x94C JUMPI PUSH1 0x20 DUP4 DUP2 DUP7 ADD SWAP6 ADD ADD GT PUSH2 0x94C JUMPI JUMP JUMPDEST PUSH1 0x0 JUMPDEST DUP4 DUP2 LT PUSH2 0x9A5 JUMPI POP POP PUSH1 0x0 SWAP2 ADD MSTORE JUMP JUMPDEST DUP2 DUP2 ADD MLOAD DUP4 DUP3 ADD MSTORE PUSH1 0x20 ADD PUSH2 0x995 JUMP JUMPDEST SWAP1 PUSH1 0x20 SWAP2 PUSH2 0x9CE DUP2 MLOAD DUP1 SWAP3 DUP2 DUP6 MSTORE DUP6 DUP1 DUP7 ADD SWAP2 ADD PUSH2 0x992 JUMP JUMPDEST PUSH1 0x1F ADD PUSH1 0x1F NOT AND ADD ADD SWAP1 JUMP JUMPDEST PUSH1 0x0 SLOAD PUSH1 0x1 PUSH1 0x1 PUSH1 0xA0 SHL SUB AND CALLER SUB PUSH2 0x9EE JUMPI JUMP JUMPDEST PUSH1 0x64 PUSH1 0x40 MLOAD PUSH3 0x461BCD PUSH1 0xE5 SHL DUP2 MSTORE PUSH1 0x20 PUSH1 0x4 DUP3 ADD MSTORE PUSH1 0x20 PUSH1 0x24 DUP3 ADD MSTORE PUSH32 0x4F776E61626C653A2063616C6C6572206973206E6F7420746865206F776E6572 PUSH1 0x44 DUP3 ADD MSTORE REVERT JUMPDEST PUSH1 0x1 PUSH1 0x1 PUSH1 0x40 SHL SUB DUP2 GT PUSH2 0xA45 JUMPI PUSH1 0x40 MSTORE JUMP JUMPDEST PUSH4 0x4E487B71 PUSH1 0xE0 SHL PUSH1 0x0 MSTORE PUSH1 0x41 PUSH1 0x4 MSTORE PUSH1 0x24 PUSH1 0x0 REVERT JUMPDEST SWAP1 PUSH1 0x1F DUP1 NOT SWAP2 ADD AND DUP2 ADD SWAP1 DUP2 LT PUSH1 0x1 PUSH1 0x1 PUSH1 0x40 SHL SUB DUP3 GT OR PUSH2 0xA45 JUMPI PUSH1 0x40 MSTORE JUMP JUMPDEST SWAP1 DUP1 PUSH1 0x20 SWAP4 SWAP3 DUP2 DUP5 MSTORE DUP5 DUP5 ADD CALLDATACOPY PUSH1 0x0 DUP3 DUP3 ADD DUP5 ADD MSTORE PUSH1 0x1F ADD PUSH1 0x1F NOT AND ADD ADD SWAP1 JUMP JUMPDEST PUSH1 0x1 PUSH1 0x1 PUSH1 0x40 SHL SUB DUP2 GT PUSH2 0xA45 JUMPI PUSH1 0x1F ADD PUSH1 0x1F NOT AND PUSH1 0x20 ADD SWAP1 JUMP JUMPDEST MLOAD SWAP1 PUSH1 0x1 PUSH1 0x1 PUSH1 0xA0 SHL SUB DUP3 AND DUP3 SUB PUSH2 0x94C JUMPI JUMP JUMPDEST SWAP2 SWAP1 DUP3 ADD DUP1 SWAP3 GT PUSH2 0xAD9 JUMPI JUMP JUMPDEST PUSH4 0x4E487B71 PUSH1 0xE0 SHL PUSH1 0x0 MSTORE PUSH1 0x11 PUSH1 0x4 MSTORE PUSH1 0x24 PUSH1 0x0 REVERT JUMPDEST SWAP1 DUP2 PUSH1 0x20 SWAP2 SUB SLT PUSH2 0x94C JUMPI MLOAD DUP1 ISZERO ISZERO DUP2 SUB PUSH2 0x94C JUMPI SWAP1 JUMP JUMPDEST SWAP1 DUP1 PUSH1 0x1F DUP4 ADD SLT ISZERO PUSH2 0x94C JUMPI DUP2 CALLDATALOAD SWAP1 PUSH1 0x1 PUSH1 0x1 PUSH1 0x40 SHL SUB DUP3 GT PUSH2 0xA45 JUMPI DUP2 PUSH1 0x5 SHL PUSH1 0x40 MLOAD SWAP4 PUSH1 0x20 SWAP4 PUSH2 0xB3B DUP6 DUP5 ADD DUP8 PUSH2 0xA5B JUMP JUMPDEST DUP6 MSTORE DUP4 DUP1 DUP7 ADD SWAP3 DUP3 ADD ADD SWAP3 DUP4 GT PUSH2 0x94C JUMPI DUP4 ADD SWAP1 JUMPDEST DUP3 DUP3 LT PUSH2 0xB5E JUMPI POP POP POP POP SWAP1 JUMP JUMPDEST DUP4 DUP1 SWAP2 PUSH2 0xB6A DUP5 PUSH2 0x951 JUMP JUMPDEST DUP2 MSTORE ADD SWAP2 ADD SWAP1 PUSH2 0xB50 JUMP JUMPDEST DUP1 MLOAD DUP3 LT ISZERO PUSH2 0xB89 JUMPI PUSH1 0x20 SWAP2 PUSH1 0x5 SHL ADD ADD SWAP1 JUMP JUMPDEST PUSH4 0x4E487B71 PUSH1 0xE0 SHL PUSH1 0x0 MSTORE PUSH1 0x32 PUSH1 0x4 MSTORE PUSH1 0x24 PUSH1 0x0 REVERT JUMPDEST SWAP3 SWAP2 SWAP1 SWAP6 SWAP5 SWAP4 SWAP6 PUSH1 0xA0 DUP5 ADD SWAP1 DUP5 MSTORE PUSH1 0x20 SWAP2 DUP3 DUP6 ADD MSTORE PUSH1 0xA0 PUSH1 0x40 DUP6 ADD MSTORE DUP3 MLOAD DUP1 SWAP2 MSTORE DUP2 PUSH1 0xC0 DUP6 ADD SWAP4 ADD SWAP2 PUSH1 0x0 JUMPDEST DUP3 DUP2 LT PUSH2 0xBEC JUMPI POP POP POP POP SWAP1 PUSH1 0x80 SWAP2 SWAP5 PUSH1 0x1 DUP1 PUSH1 0xA0 SHL SUB AND PUSH1 0x60 DUP3 ADD MSTORE ADD MSTORE JUMP JUMPDEST DUP4 MLOAD PUSH1 0x1 PUSH1 0x1 PUSH1 0xA0 SHL SUB AND DUP6 MSTORE SWAP4 DUP2 ADD SWAP4 SWAP3 DUP2 ADD SWAP3 PUSH1 0x1 ADD PUSH2 0xBCB JUMP JUMPDEST SWAP6 SWAP5 SWAP4 SWAP1 SWAP2 SWAP3 SWAP4 PUSH1 0x0 DUP1 SWAP6 PUSH1 0x0 DUP1 MLOAD PUSH1 0x20 PUSH2 0x1E60 DUP4 CODECOPY DUP2 MLOAD SWAP2 MSTORE PUSH1 0x60 PUSH1 0x40 MLOAD PUSH1 0x20 DUP2 MSTORE PUSH1 0x1A PUSH1 0x20 DUP3 ADD MSTORE PUSH32 0x657865637574654F7065726174696F6E282920656E7465726564000000000000 PUSH1 0x40 DUP3 ADD MSTORE LOG1 PUSH1 0x0 DUP1 MLOAD PUSH1 0x20 PUSH2 0x1E60 DUP4 CODECOPY DUP2 MLOAD SWAP2 MSTORE PUSH2 0xCF6 PUSH2 0xC9E PUSH32 0x0 PUSH1 0x1 PUSH1 0x1 PUSH1 0xA0 SHL SUB AND PUSH2 0x1D4B JUMP JUMPDEST PUSH2 0xCE2 PUSH1 0x2E PUSH1 0x40 MLOAD DUP1 SWAP4 PUSH14 0x2827A7A61030B2323932B9B99D1 PUSH1 0x95 SHL PUSH1 0x20 DUP4 ADD MSTORE PUSH2 0xCD2 DUP2 MLOAD DUP1 SWAP3 PUSH1 0x20 DUP7 DUP7 ADD SWAP2 ADD PUSH2 0x992 JUMP JUMPDEST DUP2 ADD SUB PUSH1 0xE DUP2 ADD DUP5 MSTORE ADD DUP3 PUSH2 0xA5B JUMP JUMPDEST PUSH1 0x40 MLOAD SWAP2 DUP3 SWAP2 PUSH1 0x20 DUP4 MSTORE PUSH1 0x20 DUP4 ADD SWAP1 PUSH2 0x9B5 JUMP JUMPDEST SUB SWAP1 LOG1 PUSH1 0x0 DUP1 MLOAD PUSH1 0x20 PUSH2 0x1E60 DUP4 CODECOPY DUP2 MLOAD SWAP2 MSTORE PUSH2 0xD56 PUSH2 0xD14 CALLER PUSH2 0x1D4B JUMP JUMPDEST PUSH2 0xCE2 PUSH1 0x2C PUSH1 0x40 MLOAD DUP1 SWAP4 PUSH12 0x36B9B39739B2B73232B91D1 PUSH1 0xA5 SHL PUSH1 0x20 DUP4 ADD MSTORE PUSH2 0xD46 DUP2 MLOAD DUP1 SWAP3 PUSH1 0x20 DUP7 DUP7 ADD SWAP2 ADD PUSH2 0x992 JUMP JUMPDEST DUP2 ADD SUB PUSH1 0xC DUP2 ADD DUP5 MSTORE ADD DUP3 PUSH2 0xA5B JUMP JUMPDEST SUB SWAP1 LOG1 PUSH1 0x1 PUSH1 0x1 PUSH1 0xA0 SHL SUB AND PUSH1 0x0 DUP1 MLOAD PUSH1 0x20 PUSH2 0x1E60 DUP4 CODECOPY DUP2 MLOAD SWAP2 MSTORE PUSH2 0xDBE PUSH2 0xD7D DUP4 PUSH2 0x1D4B JUMP JUMPDEST PUSH2 0xCE2 PUSH1 0x2B PUSH1 0x40 MLOAD DUP1 SWAP4 PUSH11 0x34B734BA34B0BA37B91D1 PUSH1 0xAD SHL PUSH1 0x20 DUP4 ADD MSTORE PUSH2 0xDAE DUP2 MLOAD DUP1 SWAP3 PUSH1 0x20 DUP7 DUP7 ADD SWAP2 ADD PUSH2 0x992 JUMP JUMPDEST DUP2 ADD SUB PUSH1 0xB DUP2 ADD DUP5 MSTORE ADD DUP3 PUSH2 0xA5B JUMP JUMPDEST SUB SWAP1 LOG1 PUSH32 0x0 PUSH1 0x1 PUSH1 0x1 PUSH1 0xA0 SHL SUB AND CALLER SUB PUSH2 0x1B9E JUMPI ADDRESS SUB PUSH2 0x1B59 JUMPI PUSH1 0x40 MLOAD PUSH4 0x5B94A08D PUSH1 0xE1 SHL DUP2 MSTORE PUSH1 0x20 PUSH1 0x4 DUP3 ADD MSTORE PUSH1 0x0 DUP2 DUP1 PUSH2 0xE1D PUSH1 0x24 DUP3 ADD DUP8 DUP10 PUSH2 0xA7C JUMP JUMPDEST SUB DUP2 ADDRESS GAS STATICCALL PUSH1 0x0 DUP1 PUSH1 0x0 SWAP1 DUP4 PUSH1 0x0 SWAP6 PUSH1 0x0 SWAP6 PUSH2 0x1AA7 JUMPI JUMPDEST POP PUSH2 0x1558 JUMPI POP POP POP POP POP POP PUSH1 0x0 DUP1 MLOAD PUSH1 0x20 PUSH2 0x1E60 DUP4 CODECOPY DUP2 MLOAD SWAP2 MSTORE PUSH1 0x60 PUSH1 0x40 MLOAD PUSH1 0x20 DUP2 MSTORE PUSH1 0x1E PUSH1 0x20 DUP3 ADD MSTORE PUSH32 0x46616C6C6261636B20746F20556E69737761702F537573686920706174680000 PUSH1 0x40 DUP3 ADD MSTORE LOG1 PUSH1 0xC0 DUP3 DUP3 DUP2 ADD SUB SLT PUSH2 0x94C JUMPI PUSH2 0xE9A DUP3 PUSH2 0x951 JUMP JUMPDEST SWAP1 PUSH1 0x1 PUSH1 0x1 PUSH1 0x40 SHL SUB SWAP1 PUSH1 0x40 DUP5 ADD CALLDATALOAD DUP3 DUP2 GT PUSH2 0x94C JUMPI PUSH2 0xEBF SWAP1 DUP3 DUP7 ADD SWAP1 DUP7 ADD PUSH2 0xB07 JUMP JUMPDEST SWAP2 PUSH1 0x60 DUP6 ADD CALLDATALOAD GT PUSH2 0x94C JUMPI PUSH2 0xEDC SWAP1 DUP5 ADD PUSH1 0x60 DUP6 ADD CALLDATALOAD DUP6 ADD PUSH2 0xB07 JUMP JUMPDEST SWAP2 PUSH1 0x0 DUP1 MLOAD PUSH1 0x20 PUSH2 0x1E60 DUP4 CODECOPY DUP2 MLOAD SWAP2 MSTORE PUSH1 0x60 PUSH1 0x40 MLOAD PUSH1 0x20 DUP2 MSTORE PUSH1 0x17 PUSH1 0x20 DUP3 ADD MSTORE PUSH32 0x5377617070696E672076696120556E69737761702E2E2E000000000000000000 PUSH1 0x40 DUP3 ADD MSTORE LOG1 PUSH1 0x40 MLOAD PUSH4 0x95EA7B3 PUSH1 0xE0 SHL DUP2 MSTORE PUSH1 0x1 PUSH1 0x1 PUSH1 0xA0 SHL SUB PUSH32 0x0 DUP2 AND PUSH1 0x4 DUP4 ADD MSTORE PUSH1 0x20 DUP7 DUP2 ADD CALLDATALOAD PUSH1 0x24 DUP5 ADD MSTORE SWAP2 SWAP3 DUP4 SWAP2 PUSH1 0x44 SWAP2 DUP4 SWAP2 PUSH1 0x0 SWAP2 AND GAS CALL DUP1 ISZERO PUSH2 0x14F9 JUMPI PUSH2 0x1539 JUMPI JUMPDEST POP DUP1 MLOAD SWAP1 DUP2 PUSH1 0x0 NOT DUP2 ADD GT PUSH2 0xAD9 JUMPI PUSH1 0x24 SWAP2 PUSH1 0x20 SWAP1 PUSH1 0x1 PUSH1 0x1 PUSH1 0xA0 SHL SUB SWAP1 PUSH2 0xFB1 SWAP1 PUSH1 0x0 NOT ADD DUP5 PUSH2 0xB75 JUMP JUMPDEST MLOAD AND PUSH1 0x40 MLOAD SWAP4 DUP5 DUP1 SWAP3 PUSH4 0x70A08231 PUSH1 0xE0 SHL DUP3 MSTORE ADDRESS PUSH1 0x4 DUP4 ADD MSTORE GAS STATICCALL SWAP2 DUP3 ISZERO PUSH2 0x14F9 JUMPI PUSH1 0x0 SWAP3 PUSH2 0x1505 JUMPI JUMPDEST POP PUSH32 0x0 PUSH1 0x1 PUSH1 0x1 PUSH1 0xA0 SHL SUB AND EXTCODESIZE ISZERO PUSH2 0x94C JUMPI PUSH1 0x40 MLOAD PUSH4 0x5C11D795 PUSH1 0xE0 SHL DUP2 MSTORE PUSH1 0x0 DUP2 DUP1 PUSH2 0x1036 TIMESTAMP ADDRESS DUP8 PUSH1 0x80 DUP13 ADD CALLDATALOAD PUSH1 0x20 DUP14 ADD CALLDATALOAD PUSH1 0x4 DUP8 ADD PUSH2 0xB9F JUMP JUMPDEST SUB DUP2 DUP4 PUSH32 0x0 PUSH1 0x1 PUSH1 0x1 PUSH1 0xA0 SHL SUB AND GAS CALL DUP1 ISZERO PUSH2 0x14F9 JUMPI PUSH2 0x14E5 JUMPI JUMPDEST POP DUP1 MLOAD DUP1 PUSH1 0x0 NOT DUP2 ADD GT PUSH2 0x14D1 JUMPI PUSH1 0x24 SWAP3 SWAP2 SWAP1 PUSH1 0x20 SWAP1 PUSH1 0x1 PUSH1 0x1 PUSH1 0xA0 SHL SUB SWAP1 PUSH2 0x109D SWAP1 PUSH1 0x0 NOT ADD DUP5 PUSH2 0xB75 JUMP JUMPDEST MLOAD AND PUSH1 0x40 MLOAD SWAP5 DUP6 DUP1 SWAP3 PUSH4 0x70A08231 PUSH1 0xE0 SHL DUP3 MSTORE ADDRESS PUSH1 0x4 DUP4 ADD MSTORE GAS STATICCALL SWAP3 DUP4 ISZERO PUSH2 0x147E JUMPI DUP9 SWAP4 PUSH2 0x149D JUMPI JUMPDEST POP DUP3 DUP3 DUP2 SUB GT PUSH2 0xAD9 JUMPI PUSH1 0x0 DUP1 MLOAD PUSH1 0x20 PUSH2 0x1E60 DUP4 CODECOPY DUP2 MLOAD SWAP2 MSTORE PUSH2 0x1137 PUSH2 0x10EF PUSH1 0x80 DUP9 ADD CALLDATALOAD PUSH2 0x1BE3 JUMP JUMPDEST PUSH2 0xCE2 PUSH1 0x32 PUSH1 0x40 MLOAD DUP1 SWAP4 PUSH18 0x22BC3832B1BA32B21036B4B727BABA189D1 PUSH1 0x75 SHL PUSH1 0x20 DUP4 ADD MSTORE PUSH2 0x1127 DUP2 MLOAD DUP1 SWAP3 PUSH1 0x20 DUP7 DUP7 ADD SWAP2 ADD PUSH2 0x992 JUMP JUMPDEST DUP2 ADD SUB PUSH1 0x12 DUP2 ADD DUP5 MSTORE ADD DUP3 PUSH2 0xA5B JUMP JUMPDEST SUB SWAP1 LOG1 PUSH1 0x0 DUP1 MLOAD PUSH1 0x20 PUSH2 0x1E60 DUP4 CODECOPY DUP2 MLOAD SWAP2 MSTORE PUSH2 0x1189 PUSH2 0x1157 DUP5 DUP7 SUB PUSH2 0x1BE3 JUMP JUMPDEST PUSH2 0xCE2 PUSH1 0x2C PUSH1 0x40 MLOAD DUP1 SWAP4 PUSH12 0x20B1BA3AB0B61037BABA1D1 PUSH1 0xA5 SHL PUSH1 0x20 DUP4 ADD MSTORE PUSH2 0xD46 DUP2 MLOAD DUP1 SWAP3 PUSH1 0x20 DUP7 DUP7 ADD SWAP2 ADD PUSH2 0x992 JUMP JUMPDEST SUB SWAP1 LOG1 PUSH1 0x0 DUP1 MLOAD PUSH1 0x20 PUSH2 0x1E60 DUP4 CODECOPY DUP2 MLOAD SWAP2 MSTORE PUSH1 0x60 PUSH1 0x40 MLOAD PUSH1 0x20 DUP2 MSTORE PUSH1 0x15 PUSH1 0x20 DUP3 ADD MSTORE PUSH21 0x29BBB0B83834B733903B34B09029BAB9B434971717 PUSH1 0x59 SHL PUSH1 0x40 DUP3 ADD MSTORE LOG1 DUP1 MLOAD SWAP1 DUP2 PUSH1 0x0 NOT DUP2 ADD GT PUSH2 0x1489 JUMPI PUSH1 0x1 PUSH1 0x1 PUSH1 0xA0 SHL SUB SWAP2 PUSH2 0x11F1 SWAP2 PUSH1 0x0 NOT SWAP1 SWAP2 ADD SWAP1 PUSH2 0xB75 JUMP JUMPDEST MLOAD PUSH1 0x40 MLOAD PUSH4 0x95EA7B3 PUSH1 0xE0 SHL DUP2 MSTORE PUSH1 0x1 PUSH1 0x1 PUSH1 0xA0 SHL SUB PUSH32 0x0 AND PUSH1 0x4 DUP3 ADD MSTORE DUP4 DUP6 SUB PUSH1 0x24 DUP3 ADD MSTORE SWAP2 PUSH1 0x20 SWAP2 DUP4 SWAP2 PUSH1 0x44 SWAP2 DUP4 SWAP2 DUP14 SWAP2 AND GAS CALL DUP1 ISZERO PUSH2 0x147E JUMPI PUSH2 0x145F JUMPI JUMPDEST POP PUSH32 0x0 PUSH1 0x1 PUSH1 0x1 PUSH1 0xA0 SHL SUB AND EXTCODESIZE ISZERO PUSH2 0x2D3 JUMPI SWAP1 PUSH2 0x12AE DUP8 SWAP4 SWAP3 PUSH1 0x40 MLOAD SWAP6 DUP7 SWAP5 DUP6 SWAP5 PUSH4 0x5C11D795 PUSH1 0xE0 SHL DUP7 MSTORE TIMESTAMP SWAP4 PUSH1 0xA0 ADDRESS SWAP5 ADD CALLDATALOAD SWAP2 SUB PUSH1 0x4 DUP8 ADD PUSH2 0xB9F JUMP JUMPDEST SUB DUP2 DUP4 PUSH32 0x0 PUSH1 0x1 PUSH1 0x1 PUSH1 0xA0 SHL SUB AND GAS CALL DUP1 ISZERO PUSH2 0x1454 JUMPI SWAP1 DUP5 SWAP2 PUSH2 0x1440 JUMPI JUMPDEST POP POP SWAP1 PUSH2 0x12F7 SWAP2 PUSH2 0xACC JUMP JUMPDEST PUSH1 0x40 MLOAD PUSH4 0x70A08231 PUSH1 0xE0 SHL DUP2 MSTORE ADDRESS PUSH1 0x4 DUP3 ADD MSTORE SWAP4 PUSH1 0x1 PUSH1 0x1 PUSH1 0xA0 SHL SUB AND SWAP1 PUSH1 0x20 DUP6 PUSH1 0x24 DUP2 DUP6 GAS STATICCALL DUP1 ISZERO PUSH2 0x1435 JUMPI DUP4 SWAP5 SWAP6 DUP5 SWAP2 PUSH2 0x13FA JUMPI JUMPDEST POP SWAP2 PUSH2 0x13B8 SWAP2 PUSH32 0x651936005C982C0B3F3983BA19C8856F83424E346DA1B64243C8D974A3899B34 PUSH1 0x40 PUSH1 0x20 SWAP6 DUP2 MLOAD SWAP1 DUP2 MSTORE DUP4 DUP8 DUP3 ADD MSTORE LOG1 PUSH1 0x40 MLOAD PUSH4 0x95EA7B3 PUSH1 0xE0 SHL DUP2 MSTORE PUSH32 0x0 PUSH1 0x1 PUSH1 0x1 PUSH1 0xA0 SHL SUB AND PUSH1 0x4 DUP3 ADD MSTORE PUSH1 0x24 DUP2 ADD SWAP2 SWAP1 SWAP2 MSTORE SWAP5 DUP6 SWAP3 DUP4 SWAP2 SWAP1 DUP3 SWAP1 PUSH1 0x44 DUP3 ADD SWAP1 JUMP JUMPDEST SUB SWAP3 GAS CALL SWAP1 DUP2 ISZERO PUSH2 0x13EE JUMPI POP PUSH2 0x13CF JUMPI JUMPDEST POP PUSH1 0x1 SWAP1 JUMP JUMPDEST PUSH2 0x13E7 SWAP1 PUSH1 0x20 RETURNDATASIZE PUSH1 0x20 GT PUSH2 0x4BE JUMPI PUSH2 0x4AF DUP2 DUP4 PUSH2 0xA5B JUMP JUMPDEST POP CODESIZE PUSH2 0x13C9 JUMP JUMPDEST PUSH1 0x40 MLOAD SWAP1 RETURNDATASIZE SWAP1 DUP3 RETURNDATACOPY RETURNDATASIZE SWAP1 REVERT JUMPDEST SWAP2 SWAP3 SWAP4 POP POP PUSH1 0x20 DUP2 RETURNDATASIZE PUSH1 0x20 GT PUSH2 0x142D JUMPI JUMPDEST DUP2 PUSH2 0x1418 PUSH1 0x20 SWAP4 DUP4 PUSH2 0xA5B JUMP JUMPDEST DUP2 ADD SUB SLT PUSH2 0x94C JUMPI MLOAD DUP4 SWAP3 SWAP2 SWAP1 PUSH2 0x13B8 PUSH2 0x132E JUMP JUMPDEST RETURNDATASIZE SWAP2 POP PUSH2 0x140B JUMP JUMPDEST PUSH1 0x40 MLOAD RETURNDATASIZE DUP6 DUP3 RETURNDATACOPY RETURNDATASIZE SWAP1 REVERT JUMPDEST PUSH2 0x1449 SWAP1 PUSH2 0xA32 JUMP JUMPDEST PUSH2 0x1DF JUMPI DUP3 CODESIZE PUSH2 0x12EB JUMP JUMPDEST PUSH1 0x40 MLOAD RETURNDATASIZE DUP7 DUP3 RETURNDATACOPY RETURNDATASIZE SWAP1 REVERT JUMPDEST PUSH2 0x1477 SWAP1 PUSH1 0x20 RETURNDATASIZE PUSH1 0x20 GT PUSH2 0x4BE JUMPI PUSH2 0x4AF DUP2 DUP4 PUSH2 0xA5B JUMP JUMPDEST POP CODESIZE PUSH2 0x1251 JUMP JUMPDEST PUSH1 0x40 MLOAD RETURNDATASIZE DUP11 DUP3 RETURNDATACOPY RETURNDATASIZE SWAP1 REVERT JUMPDEST PUSH4 0x4E487B71 PUSH1 0xE0 SHL DUP10 MSTORE PUSH1 0x11 PUSH1 0x4 MSTORE PUSH1 0x24 DUP10 REVERT JUMPDEST SWAP1 SWAP3 POP PUSH1 0x20 DUP2 RETURNDATASIZE PUSH1 0x20 GT PUSH2 0x14C9 JUMPI JUMPDEST DUP2 PUSH2 0x14B9 PUSH1 0x20 SWAP4 DUP4 PUSH2 0xA5B JUMP JUMPDEST DUP2 ADD SUB SLT PUSH2 0x94C JUMPI MLOAD SWAP2 CODESIZE PUSH2 0x10C6 JUMP JUMPDEST RETURNDATASIZE SWAP2 POP PUSH2 0x14AC JUMP JUMPDEST PUSH4 0x4E487B71 PUSH1 0xE0 SHL DUP9 MSTORE PUSH1 0x11 PUSH1 0x4 MSTORE PUSH1 0x24 DUP9 REVERT JUMPDEST PUSH2 0x14F0 SWAP2 SWAP8 POP PUSH2 0xA32 JUMP JUMPDEST PUSH1 0x0 SWAP6 CODESIZE PUSH2 0x1070 JUMP JUMPDEST PUSH1 0x40 MLOAD RETURNDATASIZE PUSH1 0x0 DUP3 RETURNDATACOPY RETURNDATASIZE SWAP1 REVERT JUMPDEST SWAP1 SWAP2 POP PUSH1 0x20 DUP2 RETURNDATASIZE PUSH1 0x20 GT PUSH2 0x1531 JUMPI JUMPDEST DUP2 PUSH2 0x1521 PUSH1 0x20 SWAP4 DUP4 PUSH2 0xA5B JUMP JUMPDEST DUP2 ADD SUB SLT PUSH2 0x94C JUMPI MLOAD SWAP1 CODESIZE PUSH2 0xFDB JUMP JUMPDEST RETURNDATASIZE SWAP2 POP PUSH2 0x1514 JUMP JUMPDEST PUSH2 0x1551 SWAP1 PUSH1 0x20 RETURNDATASIZE PUSH1 0x20 GT PUSH2 0x4BE JUMPI PUSH2 0x4AF DUP2 DUP4 PUSH2 0xA5B JUMP JUMPDEST POP CODESIZE PUSH2 0xF85 JUMP JUMPDEST DUP1 SWAP3 SWAP6 SWAP13 SWAP11 POP PUSH1 0x20 SWAP2 SWAP5 SWAP10 SWAP9 SWAP8 POP PUSH32 0x9E73CE1E99DF7D45BC513893BADF42BC38069F1564EE511B0C8988F72F127B13 SWAP4 SWAP7 POP MLOAD SWAP2 ADD KECCAK256 EQ PUSH2 0x159C JUMPI POP POP POP POP POP POP POP JUMP JUMPDEST SWAP1 SWAP2 SWAP3 SWAP4 SWAP5 SWAP6 SWAP7 SWAP8 POP PUSH1 0x0 DUP1 MLOAD PUSH1 0x20 PUSH2 0x1E60 DUP4 CODECOPY DUP2 MLOAD SWAP2 MSTORE PUSH1 0x60 PUSH1 0x40 MLOAD PUSH1 0x20 DUP2 MSTORE PUSH1 0x17 PUSH1 0x20 DUP3 ADD MSTORE PUSH32 0x42616C616E63657220726F757465206465746563746564000000000000000000 PUSH1 0x40 DUP3 ADD MSTORE LOG1 PUSH1 0x0 DUP1 MLOAD PUSH1 0x20 PUSH2 0x1E60 DUP4 CODECOPY DUP2 MLOAD SWAP2 MSTORE PUSH1 0x60 PUSH1 0x40 MLOAD PUSH1 0x20 DUP2 MSTORE PUSH1 0x1C PUSH1 0x20 DUP3 ADD MSTORE PUSH32 0x496E73696465205F62616C616E6365725377617053696E676C65282900000000 PUSH1 0x40 DUP3 ADD MSTORE LOG1 PUSH1 0x40 MLOAD SWAP6 DUP7 PUSH1 0xC0 DUP2 ADD LT PUSH1 0x1 PUSH1 0x1 PUSH1 0x40 SHL SUB PUSH1 0xC0 DUP10 ADD GT OR PUSH2 0xA45 JUMPI PUSH1 0xC0 DUP8 ADD PUSH1 0x40 MSTORE DUP7 MSTORE PUSH1 0x0 PUSH1 0x20 DUP8 ADD MSTORE PUSH1 0x1 DUP1 PUSH1 0xA0 SHL SUB DUP3 AND PUSH1 0x40 DUP8 ADD MSTORE PUSH1 0x1 DUP1 PUSH1 0xA0 SHL SUB AND PUSH1 0x60 DUP7 ADD MSTORE DUP3 PUSH1 0x80 DUP7 ADD MSTORE PUSH1 0x40 MLOAD DUP1 PUSH1 0x20 DUP2 ADD LT PUSH1 0x1 PUSH1 0x1 PUSH1 0x40 SHL SUB PUSH1 0x20 DUP4 ADD GT OR PUSH2 0xA45 JUMPI PUSH1 0x20 DUP2 ADD PUSH1 0x40 MSTORE PUSH1 0x0 DUP2 MSTORE PUSH1 0xA0 DUP7 ADD MSTORE PUSH1 0x40 MLOAD SWAP1 DUP2 PUSH1 0x80 DUP2 ADD LT PUSH1 0x1 PUSH1 0x1 PUSH1 0x40 SHL SUB PUSH1 0x80 DUP5 ADD GT OR PUSH2 0xA45 JUMPI PUSH1 0x80 DUP3 ADD PUSH1 0x40 MSTORE ADDRESS DUP3 MSTORE PUSH1 0x0 PUSH1 0x20 DUP4 ADD MSTORE ADDRESS PUSH1 0x40 DUP4 ADD MSTORE PUSH1 0x0 PUSH1 0x60 DUP4 ADD MSTORE PUSH1 0x0 DUP1 MLOAD PUSH1 0x20 PUSH2 0x1E60 DUP4 CODECOPY DUP2 MLOAD SWAP2 MSTORE PUSH1 0x80 PUSH1 0x40 MLOAD PUSH1 0x20 DUP2 MSTORE PUSH1 0x24 PUSH1 0x20 DUP3 ADD MSTORE PUSH32 0x417070726F76696E6720746F6B656E496E20666F722042616C616E6365722056 PUSH1 0x40 DUP3 ADD MSTORE PUSH4 0x185D5B1D PUSH1 0xE2 SHL PUSH1 0x60 DUP3 ADD MSTORE LOG1 PUSH1 0x40 MLOAD PUSH4 0x95EA7B3 PUSH1 0xE0 SHL DUP2 MSTORE PUSH1 0x1 PUSH1 0x1 PUSH1 0xA0 SHL SUB PUSH32 0x0 DUP2 AND PUSH1 0x4 DUP4 ADD MSTORE PUSH1 0x24 DUP3 ADD DUP7 SWAP1 MSTORE SWAP1 SWAP2 PUSH1 0x20 SWAP2 DUP4 SWAP2 PUSH1 0x44 SWAP2 DUP4 SWAP2 PUSH1 0x0 SWAP2 AND GAS CALL DUP1 ISZERO PUSH2 0x14F9 JUMPI PUSH2 0x1A88 JUMPI JUMPDEST POP PUSH1 0x0 DUP1 MLOAD PUSH1 0x20 PUSH2 0x1E60 DUP4 CODECOPY DUP2 MLOAD SWAP2 MSTORE PUSH1 0x60 PUSH1 0x40 MLOAD PUSH1 0x20 DUP2 MSTORE PUSH1 0x1C PUSH1 0x20 DUP3 ADD MSTORE PUSH32 0x43616C6C696E672062616C616E6365725661756C742E73776170282900000000 PUSH1 0x40 DUP3 ADD MSTORE LOG1 PUSH1 0x40 MLOAD SWAP5 PUSH4 0x52BBBE29 PUSH1 0xE0 SHL DUP7 MSTORE PUSH1 0xE0 PUSH1 0x4 DUP8 ADD MSTORE DUP1 MLOAD PUSH1 0xE4 DUP8 ADD MSTORE PUSH1 0x20 DUP2 ADD MLOAD SWAP2 PUSH1 0x2 DUP4 LT ISZERO PUSH2 0x1A72 JUMPI PUSH1 0x20 SWAP4 PUSH1 0x60 PUSH2 0x1861 PUSH1 0xA0 DUP11 SWAP7 SWAP6 DUP8 SWAP7 PUSH2 0x104 DUP9 ADD MSTORE PUSH1 0x1 DUP1 DUP4 SHL SUB PUSH1 0x40 DUP3 ADD MLOAD AND PUSH2 0x124 DUP9 ADD MSTORE PUSH1 0x1 DUP1 DUP4 SHL SUB DUP5 DUP3 ADD MLOAD AND PUSH2 0x144 DUP9 ADD MSTORE PUSH1 0x80 DUP2 ADD MLOAD PUSH2 0x164 DUP9 ADD MSTORE ADD MLOAD PUSH1 0xC0 PUSH2 0x184 DUP8 ADD MSTORE PUSH2 0x1A4 DUP7 ADD SWAP1 PUSH2 0x9B5 JUMP JUMPDEST DUP4 MLOAD PUSH1 0x1 PUSH1 0x1 PUSH1 0xA0 SHL SUB SWAP1 DUP2 AND PUSH1 0x24 DUP8 ADD MSTORE DUP8 DUP6 ADD MLOAD ISZERO ISZERO PUSH1 0x44 DUP8 ADD MSTORE PUSH1 0x40 DUP6 ADD MLOAD DUP2 AND PUSH1 0x64 DUP8 ADD MSTORE SWAP2 SWAP1 SWAP4 ADD MLOAD ISZERO ISZERO PUSH1 0x84 DUP6 ADD MSTORE PUSH1 0xA4 DUP5 ADD SWAP2 SWAP1 SWAP2 MSTORE TIMESTAMP PUSH1 0xC4 DUP5 ADD MSTORE SWAP2 SWAP1 SUB SWAP1 DUP3 SWAP1 PUSH1 0x0 SWAP1 PUSH32 0x0 AND GAS CALL SWAP3 DUP4 ISZERO PUSH2 0x14F9 JUMPI PUSH1 0x0 SWAP4 PUSH2 0x1A1E JUMPI JUMPDEST POP PUSH32 0xFA494FC6B2615D7CCD02DFA90340C36ED4B7CAC6672B2E19B91B468CC4321D34 PUSH1 0x20 PUSH2 0x1914 SWAP5 PUSH1 0x40 MLOAD SWAP1 DUP2 MSTORE LOG1 PUSH2 0xACC JUMP JUMPDEST PUSH1 0x40 MLOAD PUSH4 0x70A08231 PUSH1 0xE0 SHL DUP2 MSTORE ADDRESS PUSH1 0x4 DUP3 ADD MSTORE PUSH1 0x1 PUSH1 0x1 PUSH1 0xA0 SHL SUB SWAP1 SWAP3 AND SWAP2 PUSH1 0x20 DUP2 PUSH1 0x24 DUP2 DUP7 GAS STATICCALL SWAP1 DUP2 ISZERO PUSH2 0x14F9 JUMPI PUSH1 0x0 SWAP2 PUSH2 0x19EB JUMPI JUMPDEST POP PUSH1 0x0 SWAP3 PUSH1 0x20 SWAP3 PUSH32 0x651936005C982C0B3F3983BA19C8856F83424E346DA1B64243C8D974A3899B34 PUSH1 0x40 PUSH2 0x19D7 SWAP5 DUP2 MLOAD SWAP1 DUP2 MSTORE DUP4 DUP8 DUP3 ADD MSTORE LOG1 PUSH1 0x40 MLOAD PUSH4 0x95EA7B3 PUSH1 0xE0 SHL DUP2 MSTORE PUSH32 0x0 PUSH1 0x1 PUSH1 0x1 PUSH1 0xA0 SHL SUB AND PUSH1 0x4 DUP3 ADD MSTORE PUSH1 0x24 DUP2 ADD SWAP2 SWAP1 SWAP2 MSTORE SWAP4 DUP5 SWAP3 DUP4 SWAP2 SWAP1 DUP3 SWAP1 PUSH1 0x44 DUP3 ADD SWAP1 JUMP JUMPDEST SUB SWAP3 GAS CALL DUP1 ISZERO PUSH2 0x14F9 JUMPI PUSH2 0x13CF JUMPI POP PUSH1 0x1 SWAP1 JUMP JUMPDEST SWAP1 POP PUSH1 0x20 DUP2 RETURNDATASIZE PUSH1 0x20 GT PUSH2 0x1A16 JUMPI JUMPDEST DUP2 PUSH2 0x1A06 PUSH1 0x20 SWAP4 DUP4 PUSH2 0xA5B JUMP JUMPDEST DUP2 ADD SUB SLT PUSH2 0x94C JUMPI MLOAD PUSH1 0x0 PUSH2 0x194B JUMP JUMPDEST RETURNDATASIZE SWAP2 POP PUSH2 0x19F9 JUMP JUMPDEST SWAP3 POP PUSH1 0x20 DUP4 RETURNDATASIZE PUSH1 0x20 GT PUSH2 0x1A6A JUMPI JUMPDEST DUP2 PUSH2 0x1A39 PUSH1 0x20 SWAP4 DUP4 PUSH2 0xA5B JUMP JUMPDEST DUP2 ADD SUB SLT PUSH2 0x94C JUMPI SWAP2 MLOAD SWAP2 PUSH32 0xFA494FC6B2615D7CCD02DFA90340C36ED4B7CAC6672B2E19B91B468CC4321D34 PUSH2 0x18E0 JUMP JUMPDEST RETURNDATASIZE SWAP2 POP PUSH2 0x1A2C JUMP JUMPDEST PUSH4 0x4E487B71 PUSH1 0xE0 SHL PUSH1 0x0 MSTORE PUSH1 0x21 PUSH1 0x4 MSTORE PUSH1 0x24 PUSH1 0x0 REVERT JUMPDEST PUSH2 0x1AA0 SWAP1 PUSH1 0x20 RETURNDATASIZE PUSH1 0x20 GT PUSH2 0x4BE JUMPI PUSH2 0x4AF DUP2 DUP4 PUSH2 0xA5B JUMP JUMPDEST POP CODESIZE PUSH2 0x1797 JUMP JUMPDEST SWAP6 POP SWAP4 POP POP POP POP RETURNDATASIZE SWAP2 DUP3 PUSH1 0x0 DUP3 RETURNDATACOPY PUSH2 0x1ABF DUP4 DUP3 PUSH2 0xA5B JUMP JUMPDEST PUSH1 0xC0 DUP2 DUP5 DUP2 ADD SUB SLT PUSH2 0x94C JUMPI DUP1 MLOAD PUSH1 0x1 PUSH1 0x1 PUSH1 0x40 SHL SUB DUP2 GT PUSH2 0x94C JUMPI DUP4 DUP3 ADD PUSH1 0x1F DUP3 DUP5 ADD ADD SLT ISZERO PUSH2 0x94C JUMPI DUP1 DUP3 ADD MLOAD PUSH2 0x1AF7 DUP2 PUSH2 0xA9D JUMP JUMPDEST SWAP5 PUSH2 0x1B05 PUSH1 0x40 MLOAD SWAP7 DUP8 PUSH2 0xA5B JUMP JUMPDEST DUP2 DUP7 MSTORE DUP4 ADD PUSH1 0x20 DUP3 DUP5 DUP7 ADD ADD ADD GT PUSH2 0x94C JUMPI PUSH2 0x1B29 SWAP2 PUSH1 0x20 DUP1 DUP8 ADD SWAP2 DUP6 ADD ADD PUSH2 0x992 JUMP JUMPDEST PUSH2 0x1B35 PUSH1 0x20 DUP3 ADD PUSH2 0xAB8 JUMP JUMPDEST SWAP1 PUSH2 0x1B42 PUSH1 0x40 DUP3 ADD PUSH2 0xAB8 JUMP JUMPDEST SWAP2 PUSH1 0x80 PUSH1 0x60 DUP4 ADD MLOAD SWAP3 ADD MLOAD SWAP5 SWAP1 SWAP3 SWAP2 SWAP5 SWAP4 CODESIZE PUSH2 0xE34 JUMP JUMPDEST PUSH1 0x40 MLOAD PUSH3 0x461BCD PUSH1 0xE5 SHL DUP2 MSTORE PUSH1 0x20 PUSH1 0x4 DUP3 ADD MSTORE PUSH1 0x19 PUSH1 0x24 DUP3 ADD MSTORE PUSH32 0x4F6E6C7920696E6974696174656420696E7465726E616C6C7900000000000000 PUSH1 0x44 DUP3 ADD MSTORE PUSH1 0x64 SWAP1 REVERT JUMPDEST PUSH1 0x40 MLOAD PUSH3 0x461BCD PUSH1 0xE5 SHL DUP2 MSTORE PUSH1 0x20 PUSH1 0x4 DUP3 ADD MSTORE PUSH1 0x1A PUSH1 0x24 DUP3 ADD MSTORE PUSH32 0x4F6E6C792063616C6C61626C65206279204161766520706F6F6C000000000000 PUSH1 0x44 DUP3 ADD MSTORE PUSH1 0x64 SWAP1 REVERT JUMPDEST DUP1 PUSH1 0x0 SWAP2 PUSH27 0x184F03E93FF9F4DAA797ED6E38ED64BF6A1F010000000000000000 DUP1 DUP3 LT ISZERO PUSH2 0x1D3D JUMPI JUMPDEST POP PUSH14 0x4EE2D6D415B85ACEF8100000000 DUP1 DUP4 LT ISZERO PUSH2 0x1D2E JUMPI JUMPDEST POP PUSH7 0x2386F26FC10000 DUP1 DUP4 LT ISZERO PUSH2 0x1D1F JUMPI JUMPDEST POP PUSH4 0x5F5E100 DUP1 DUP4 LT ISZERO PUSH2 0x1D10 JUMPI JUMPDEST POP PUSH2 0x2710 DUP1 DUP4 LT ISZERO PUSH2 0x1D01 JUMPI JUMPDEST POP PUSH1 0x64 DUP3 LT ISZERO PUSH2 0x1CF1 JUMPI JUMPDEST PUSH1 0xA DUP1 SWAP3 LT ISZERO PUSH2 0x1CE7 JUMPI JUMPDEST PUSH1 0x1 SWAP1 DUP2 PUSH1 0x21 DUP2 DUP7 ADD SWAP6 PUSH2 0x1C7C DUP8 PUSH2 0xA9D JUMP JUMPDEST SWAP7 PUSH2 0x1C8A PUSH1 0x40 MLOAD SWAP9 DUP10 PUSH2 0xA5B JUMP JUMPDEST DUP1 DUP9 MSTORE PUSH2 0x1C99 PUSH1 0x1F NOT SWAP2 PUSH2 0xA9D JUMP JUMPDEST ADD CALLDATASIZE PUSH1 0x20 DUP10 ADD CALLDATACOPY DUP7 ADD ADD SWAP1 JUMPDEST PUSH2 0x1CB1 JUMPI JUMPDEST POP POP POP POP SWAP1 JUMP JUMPDEST PUSH1 0x0 NOT ADD SWAP1 DUP4 SWAP1 PUSH16 0x181899199A1A9B1B9C1CB0B131B232B3 PUSH1 0x81 SHL DUP3 DUP3 MOD BYTE DUP4 MSTORE8 DIV SWAP2 DUP3 ISZERO PUSH2 0x1CE2 JUMPI SWAP2 SWAP1 DUP3 PUSH2 0x1CA5 JUMP JUMPDEST PUSH2 0x1CAA JUMP JUMPDEST SWAP2 PUSH1 0x1 ADD SWAP2 PUSH2 0x1C69 JUMP JUMPDEST SWAP2 SWAP1 PUSH1 0x64 PUSH1 0x2 SWAP2 DIV SWAP2 ADD SWAP2 PUSH2 0x1C5E JUMP JUMPDEST PUSH1 0x4 SWAP2 SWAP4 SWAP3 DIV SWAP2 ADD SWAP2 CODESIZE PUSH2 0x1C53 JUMP JUMPDEST PUSH1 0x8 SWAP2 SWAP4 SWAP3 DIV SWAP2 ADD SWAP2 CODESIZE PUSH2 0x1C46 JUMP JUMPDEST PUSH1 0x10 SWAP2 SWAP4 SWAP3 DIV SWAP2 ADD SWAP2 CODESIZE PUSH2 0x1C37 JUMP JUMPDEST PUSH1 0x20 SWAP2 SWAP4 SWAP3 DIV SWAP2 ADD SWAP2 CODESIZE PUSH2 0x1C25 JUMP JUMPDEST PUSH1 0x40 SWAP4 POP DUP2 DIV SWAP2 POP CODESIZE PUSH2 0x1C0C JUMP JUMPDEST PUSH1 0x40 MLOAD SWAP1 PUSH1 0x60 DUP3 ADD DUP3 DUP2 LT PUSH1 0x1 PUSH1 0x1 PUSH1 0x40 SHL SUB DUP3 GT OR PUSH2 0xA45 JUMPI PUSH1 0x40 MSTORE PUSH1 0x2A DUP3 MSTORE PUSH1 0x20 SWAP1 DUP2 DUP4 ADD PUSH1 0x40 CALLDATASIZE DUP3 CALLDATACOPY DUP4 MLOAD ISZERO PUSH2 0xB89 JUMPI PUSH1 0x30 SWAP1 MSTORE8 DUP3 MLOAD PUSH1 0x1 SWAP1 DUP2 LT ISZERO PUSH2 0xB89 JUMPI PUSH1 0x78 PUSH1 0x21 DUP6 ADD MSTORE8 PUSH1 0x29 SWAP1 JUMPDEST DUP1 DUP3 GT PUSH2 0x1DED JUMPI POP POP PUSH2 0x1DAA JUMPI POP SWAP1 JUMP JUMPDEST PUSH1 0x64 SWAP1 PUSH1 0x40 MLOAD SWAP1 PUSH3 0x461BCD PUSH1 0xE5 SHL DUP3 MSTORE DUP1 PUSH1 0x4 DUP4 ADD MSTORE PUSH1 0x24 DUP3 ADD MSTORE PUSH32 0x537472696E67733A20686578206C656E67746820696E73756666696369656E74 PUSH1 0x44 DUP3 ADD MSTORE REVERT JUMPDEST SWAP1 SWAP2 PUSH1 0xF DUP2 AND PUSH1 0x10 DUP2 LT ISZERO PUSH2 0x1E4A JUMPI DUP6 MLOAD DUP5 LT ISZERO PUSH2 0x1E4A JUMPI PUSH16 0x181899199A1A9B1B9C1CB0B131B232B3 PUSH1 0x81 SHL SWAP1 BYTE DUP6 DUP5 ADD DUP6 ADD MSTORE8 PUSH1 0x4 SHR SWAP2 DUP1 ISZERO PUSH2 0x1E35 JUMPI PUSH1 0x0 NOT ADD SWAP1 PUSH2 0x1D99 JUMP JUMPDEST PUSH1 0x24 PUSH1 0x0 PUSH4 0x4E487B71 PUSH1 0xE0 SHL DUP2 MSTORE PUSH1 0x11 PUSH1 0x4 MSTORE REVERT JUMPDEST PUSH1 0x24 PUSH1 0x0 PUSH4 0x4E487B71 PUSH1 0xE0 SHL DUP2 MSTORE PUSH1 0x32 PUSH1 0x4 MSTORE REVERT INVALID EXTCODEHASH LOG2 0xB0 SUB 0xDC 0xC5 0xB5 SSTORE GT CREATE 0x1E PUSH23 0xD1059A2DA17C0112D013F01896E70E37BB3F3D57A26469 PUSH17 0x667358221220066884072642F97C7356B8 0x5C PUSH15 0x6968A1F94174C41CDFE76A1D0663E5 ADDMOD PUSH1 0x33 0xDB PUSH5 0x736F6C6343 STOP ADDMOD EQ STOP CALLER "},"methodIdentifiers":{"ADDRESSES_PROVIDER()":"0542975c","POOL()":"7535d246","balancerVault()":"158274a5","decodeBalancerParams(bytes)":"b729411a","executeOperation(address,uint256,uint256,address,bytes)":"1b11d0ff","initiateFlashloan(address,uint256,bytes)":"b4ee8776","owner()":"8da5cb5b","renounceOwnership()":"715018a6","sushiSwapRouter()":"fd829a23","transferOwnership(address)":"f2fde38b","uniswapRouter()":"735de9f7","withdrawAll(address[])":"6568a279","withdrawEther()":"7362377b","withdrawToken(address)":"89476069"}}}}}