{"contracts/TestFlashloanReceiver.sol":{"TestFlashloanReceiver":{"abi":[{"inputs":[{"internalType":"address","name":"_addressProvider","type":"address"}],"stateMutability":"nonpayable","type":"constructor"},{"anonymous":false,"inputs":[{"indexed":false,"internalType":"uint256","name":"balance","type":"uint256"}],"name":"Profit","type":"event"},{"anonymous":false,"inputs":[{"indexed":false,"internalType":"address","name":"asset","type":"address"},{"indexed":false,"internalType":"uint256","name":"amount","type":"uint256"},{"indexed":false,"internalType":"uint256","name":"premium","type":"uint256"}],"name":"ReceivedFlashloan","type":"event"},{"anonymous":false,"inputs":[{"indexed":false,"internalType":"uint256","name":"totalRepayment","type":"uint256"}],"name":"RepaidLoan","type":"event"},{"anonymous":false,"inputs":[{"indexed":false,"internalType":"address","name":"tokenIn","type":"address"},{"indexed":false,"internalType":"address","name":"tokenOut","type":"address"},{"indexed":false,"internalType":"uint256","name":"amountIn","type":"uint256"},{"indexed":false,"internalType":"uint256","name":"amountOut","type":"uint256"}],"name":"Swapped","type":"event"},{"inputs":[],"name":"ADDRESSES_PROVIDER","outputs":[{"internalType":"contract IPoolAddressesProvider","name":"","type":"address"}],"stateMutability":"view","type":"function"},{"inputs":[],"name":"POOL","outputs":[{"internalType":"contract IPool","name":"","type":"address"}],"stateMutability":"view","type":"function"},{"inputs":[{"internalType":"address","name":"asset","type":"address"},{"internalType":"uint256","name":"amount","type":"uint256"},{"internalType":"uint256","name":"premium","type":"uint256"},{"internalType":"address","name":"initiator","type":"address"},{"internalType":"bytes","name":"params","type":"bytes"}],"name":"executeOperation","outputs":[{"internalType":"bool","name":"","type":"bool"}],"stateMutability":"nonpayable","type":"function"}],"evm":{"bytecode":{"linkReferences":{},"object":"60c080604052346100ce5760046020610a66803803809161002082876100d3565b85396001600160a01b0393849161003a919081019061010c565b16806080526040519283809263026b1d5f60e01b82525afa9081156100c257600091610094575b501660a05260405161093a908161012c8239608051816106e8015260a05181818160560152818161010301526104710152f35b6100b5915060203d81116100bb575b6100ad81836100d3565b81019061010c565b38610061565b503d6100a3565b6040513d6000823e3d90fd5b600080fd5b601f909101601f19168101906001600160401b038211908210176100f657604052565b634e487b7160e01b600052604160045260246000fd5b908160209103126100ce57516001600160a01b03811681036100ce579056fe608080604052600436101561001357600080fd5b60003560e01c9081630542975c146106d5575080631b11d0ff1461008a57637535d2461461004057600080fd5b34610085576000366003190112610085576040517f00000000000000000000000000000000000000000000000000000000000000006001600160a01b03168152602090f35b600080fd5b346100855760a0366003190112610085576004356001600160a01b0381168103610085576064356001600160a01b038116908190036100855767ffffffffffffffff90816084351161008557366023608435011215610085576084356004013582811161008557602481608435010191368311610085577f00000000000000000000000000000000000000000000000000000000000000006001600160a01b031633036106a057300361066c5760a0907f881be9927fcf346691c123cc71b9aee0ed4b23ebcebe4d66aee5891dac6c1b476060604051600180861b038816815260243560208201526044356040820152a160843590810103126100855760843560240135916001600160a01b03831683036100855760446084350135818111610085578260246101be926084350101610767565b91606460843501359182116100855760246101dd926084350101610767565b60405163095ea7b360e01b81526001600160a01b038416600482015260248035908201526020818060448101038160006001600160a01b038a165af180156105965761064d575b506040516338ed173960e01b8152916000838061024f42308660848035013560243560048701610867565b0381836001600160a01b0389165af192831561059657600093610627575b50600090602090610355907fa078c4190abe07940190effc1846be0ccf03ad6007bc9e93f9697d0b460befbb6001600160a01b036102aa836108d1565b51166001600160a01b036102bd846108f4565b51166103016102cb8a6108f4565b51604080516001600160a01b03958616815294909316602085015260243592840192909252606083019190915281906080820190565b0390a16001600160a01b0390610316906108f4565b5116610321866108f4565b5160405163095ea7b360e01b81526001600160a01b0389166004820152602481019190915293849283919082906044820190565b03925af180156105965760009485926103a192610608575b50610377856108f4565b516040519687809481936338ed173960e01b8352429089309160a460843501359060048701610867565b03926001600160a01b03165af1928315610596577fa078c4190abe07940190effc1846be0ccf03ad6007bc9e93f9697d0b460befbb9361044f916000916105e5575b5061041f6104186001600160a01b036103fb866108d1565b5116946001600160a01b0390610410906108f4565b5116956108f4565b51916108f4565b51604080516001600160a01b03958616815295909416602086015292840152606083019190915281906080820190565b0390a16044356024350180602435116105cf5760405163095ea7b360e01b81527f00000000000000000000000000000000000000000000000000000000000000006001600160a01b0316600482015260248101829052916020838060448101038160006001600160a01b0386165af192831561059657602080937fefd8ddddf5453edd0268f1d7285c8989d1e3e45bc16e2d7ff936d41db52bb60e926024966105a2575b50604051908152a16040516370a0823160e01b815230600482015292839182906001600160a01b03165afa90811561059657600091610563575b7f357d905f1831209797df4d55d79c5c5bf1d9f7311c976afd05e13d881eab9bc8602083604051908152a1602060405160018152f35b90506020813d60201161058e575b8161057e60209383610717565b810103126100855751602061052d565b3d9150610571565b6040513d6000823e3d90fd5b6105c190833d85116105c8575b6105b98183610717565b8101906107d5565b50866104f3565b503d6105af565b634e487b7160e01b600052601160045260246000fd5b61060291503d806000833e6105fa8183610717565b8101906107ed565b866103e3565b6106209060203d6020116105c8576105b98183610717565b508761036d565b60009193506103556106446020923d8086833e6105fa8183610717565b9492505061026d565b6106659060203d6020116105c8576105b98183610717565b5084610224565b60405162461bcd60e51b815260206004820152600c60248201526b139bdd0818dbdb9d1c9858dd60a21b6044820152606490fd5b60405162461bcd60e51b815260206004820152600d60248201526c139bdd0810585d99481c1bdbdb609a1b6044820152606490fd5b34610085576000366003190112610085577f00000000000000000000000000000000000000000000000000000000000000006001600160a01b03168152602090f35b90601f8019910116810190811067ffffffffffffffff82111761073957604052565b634e487b7160e01b600052604160045260246000fd5b67ffffffffffffffff81116107395760051b60200190565b81601f820112156100855780359161077e8361074f565b9261078c6040519485610717565b808452602092838086019260051b820101928311610085578301905b8282106107b6575050505090565b81356001600160a01b03811681036100855781529083019083016107a8565b90816020910312610085575180151581036100855790565b60209081818403126100855780519067ffffffffffffffff821161008557019180601f840112156100855782516108238161074f565b936108316040519586610717565b818552838086019260051b820101928311610085578301905b828210610858575050505090565b8151815290830190830161084a565b9291909594939560a084019084526020918285015260a0604085015282518091528160c0850193019160005b8281106108b45750505050906080919460018060a01b031660608201520152565b83516001600160a01b031685529381019392810192600101610893565b8051156108de5760200190565b634e487b7160e01b600052603260045260246000fd5b8051600110156108de576040019056fea26469706673582212200246a626b8f17245b978468fa0259302bad5d57b45dab144c62fc129290fd74564736f6c63430008140033","opcodes":"PUSH1 0xC0 DUP1 PUSH1 0x40 MSTORE CALLVALUE PUSH2 0xCE JUMPI PUSH1 0x4 PUSH1 0x20 PUSH2 0xA66 DUP1 CODESIZE SUB DUP1 SWAP2 PUSH2 0x20 DUP3 DUP8 PUSH2 0xD3 JUMP JUMPDEST DUP6 CODECOPY PUSH1 0x1 PUSH1 0x1 PUSH1 0xA0 SHL SUB SWAP4 DUP5 SWAP2 PUSH2 0x3A SWAP2 SWAP1 DUP2 ADD SWAP1 PUSH2 0x10C JUMP JUMPDEST AND DUP1 PUSH1 0x80 MSTORE PUSH1 0x40 MLOAD SWAP3 DUP4 DUP1 SWAP3 PUSH4 0x26B1D5F PUSH1 0xE0 SHL DUP3 MSTORE GAS STATICCALL SWAP1 DUP2 ISZERO PUSH2 0xC2 JUMPI PUSH1 0x0 SWAP2 PUSH2 0x94 JUMPI JUMPDEST POP AND PUSH1 0xA0 MSTORE PUSH1 0x40 MLOAD PUSH2 0x93A SWAP1 DUP2 PUSH2 0x12C DUP3 CODECOPY PUSH1 0x80 MLOAD DUP2 PUSH2 0x6E8 ADD MSTORE PUSH1 0xA0 MLOAD DUP2 DUP2 DUP2 PUSH1 0x56 ADD MSTORE DUP2 DUP2 PUSH2 0x103 ADD MSTORE PUSH2 0x471 ADD MSTORE RETURN JUMPDEST PUSH2 0xB5 SWAP2 POP PUSH1 0x20 RETURNDATASIZE DUP2 GT PUSH2 0xBB JUMPI JUMPDEST PUSH2 0xAD DUP2 DUP4 PUSH2 0xD3 JUMP JUMPDEST DUP2 ADD SWAP1 PUSH2 0x10C JUMP JUMPDEST CODESIZE PUSH2 0x61 JUMP JUMPDEST POP RETURNDATASIZE PUSH2 0xA3 JUMP JUMPDEST PUSH1 0x40 MLOAD RETURNDATASIZE PUSH1 0x0 DUP3 RETURNDATACOPY RETURNDATASIZE SWAP1 REVERT JUMPDEST PUSH1 0x0 DUP1 REVERT JUMPDEST PUSH1 0x1F SWAP1 SWAP2 ADD PUSH1 0x1F NOT AND DUP2 ADD SWAP1 PUSH1 0x1 PUSH1 0x1 PUSH1 0x40 SHL SUB DUP3 GT SWAP1 DUP3 LT OR PUSH2 0xF6 JUMPI PUSH1 0x40 MSTORE JUMP JUMPDEST PUSH4 0x4E487B71 PUSH1 0xE0 SHL PUSH1 0x0 MSTORE PUSH1 0x41 PUSH1 0x4 MSTORE PUSH1 0x24 PUSH1 0x0 REVERT JUMPDEST SWAP1 DUP2 PUSH1 0x20 SWAP2 SUB SLT PUSH2 0xCE JUMPI MLOAD PUSH1 0x1 PUSH1 0x1 PUSH1 0xA0 SHL SUB DUP2 AND DUP2 SUB PUSH2 0xCE JUMPI SWAP1 JUMP INVALID PUSH1 0x80 DUP1 PUSH1 0x40 MSTORE PUSH1 0x4 CALLDATASIZE LT ISZERO PUSH2 0x13 JUMPI PUSH1 0x0 DUP1 REVERT JUMPDEST PUSH1 0x0 CALLDATALOAD PUSH1 0xE0 SHR SWAP1 DUP2 PUSH4 0x542975C EQ PUSH2 0x6D5 JUMPI POP DUP1 PUSH4 0x1B11D0FF EQ PUSH2 0x8A JUMPI PUSH4 0x7535D246 EQ PUSH2 0x40 JUMPI PUSH1 0x0 DUP1 REVERT JUMPDEST CALLVALUE PUSH2 0x85 JUMPI PUSH1 0x0 CALLDATASIZE PUSH1 0x3 NOT ADD SLT PUSH2 0x85 JUMPI PUSH1 0x40 MLOAD PUSH32 0x0 PUSH1 0x1 PUSH1 0x1 PUSH1 0xA0 SHL SUB AND DUP2 MSTORE PUSH1 0x20 SWAP1 RETURN JUMPDEST PUSH1 0x0 DUP1 REVERT JUMPDEST CALLVALUE PUSH2 0x85 JUMPI PUSH1 0xA0 CALLDATASIZE PUSH1 0x3 NOT ADD SLT PUSH2 0x85 JUMPI PUSH1 0x4 CALLDATALOAD PUSH1 0x1 PUSH1 0x1 PUSH1 0xA0 SHL SUB DUP2 AND DUP2 SUB PUSH2 0x85 JUMPI PUSH1 0x64 CALLDATALOAD PUSH1 0x1 PUSH1 0x1 PUSH1 0xA0 SHL SUB DUP2 AND SWAP1 DUP2 SWAP1 SUB PUSH2 0x85 JUMPI PUSH8 0xFFFFFFFFFFFFFFFF SWAP1 DUP2 PUSH1 0x84 CALLDATALOAD GT PUSH2 0x85 JUMPI CALLDATASIZE PUSH1 0x23 PUSH1 0x84 CALLDATALOAD ADD SLT ISZERO PUSH2 0x85 JUMPI PUSH1 0x84 CALLDATALOAD PUSH1 0x4 ADD CALLDATALOAD DUP3 DUP2 GT PUSH2 0x85 JUMPI PUSH1 0x24 DUP2 PUSH1 0x84 CALLDATALOAD ADD ADD SWAP2 CALLDATASIZE DUP4 GT PUSH2 0x85 JUMPI PUSH32 0x0 PUSH1 0x1 PUSH1 0x1 PUSH1 0xA0 SHL SUB AND CALLER SUB PUSH2 0x6A0 JUMPI ADDRESS SUB PUSH2 0x66C JUMPI PUSH1 0xA0 SWAP1 PUSH32 0x881BE9927FCF346691C123CC71B9AEE0ED4B23EBCEBE4D66AEE5891DAC6C1B47 PUSH1 0x60 PUSH1 0x40 MLOAD PUSH1 0x1 DUP1 DUP7 SHL SUB DUP9 AND DUP2 MSTORE PUSH1 0x24 CALLDATALOAD PUSH1 0x20 DUP3 ADD MSTORE PUSH1 0x44 CALLDATALOAD PUSH1 0x40 DUP3 ADD MSTORE LOG1 PUSH1 0x84 CALLDATALOAD SWAP1 DUP2 ADD SUB SLT PUSH2 0x85 JUMPI PUSH1 0x84 CALLDATALOAD PUSH1 0x24 ADD CALLDATALOAD SWAP2 PUSH1 0x1 PUSH1 0x1 PUSH1 0xA0 SHL SUB DUP4 AND DUP4 SUB PUSH2 0x85 JUMPI PUSH1 0x44 PUSH1 0x84 CALLDATALOAD ADD CALLDATALOAD DUP2 DUP2 GT PUSH2 0x85 JUMPI DUP3 PUSH1 0x24 PUSH2 0x1BE SWAP3 PUSH1 0x84 CALLDATALOAD ADD ADD PUSH2 0x767 JUMP JUMPDEST SWAP2 PUSH1 0x64 PUSH1 0x84 CALLDATALOAD ADD CALLDATALOAD SWAP2 DUP3 GT PUSH2 0x85 JUMPI PUSH1 0x24 PUSH2 0x1DD SWAP3 PUSH1 0x84 CALLDATALOAD ADD ADD PUSH2 0x767 JUMP JUMPDEST PUSH1 0x40 MLOAD PUSH4 0x95EA7B3 PUSH1 0xE0 SHL DUP2 MSTORE PUSH1 0x1 PUSH1 0x1 PUSH1 0xA0 SHL SUB DUP5 AND PUSH1 0x4 DUP3 ADD MSTORE PUSH1 0x24 DUP1 CALLDATALOAD SWAP1 DUP3 ADD MSTORE PUSH1 0x20 DUP2 DUP1 PUSH1 0x44 DUP2 ADD SUB DUP2 PUSH1 0x0 PUSH1 0x1 PUSH1 0x1 PUSH1 0xA0 SHL SUB DUP11 AND GAS CALL DUP1 ISZERO PUSH2 0x596 JUMPI PUSH2 0x64D JUMPI JUMPDEST POP PUSH1 0x40 MLOAD PUSH4 0x38ED1739 PUSH1 0xE0 SHL DUP2 MSTORE SWAP2 PUSH1 0x0 DUP4 DUP1 PUSH2 0x24F TIMESTAMP ADDRESS DUP7 PUSH1 0x84 DUP1 CALLDATALOAD ADD CALLDATALOAD PUSH1 0x24 CALLDATALOAD PUSH1 0x4 DUP8 ADD PUSH2 0x867 JUMP JUMPDEST SUB DUP2 DUP4 PUSH1 0x1 PUSH1 0x1 PUSH1 0xA0 SHL SUB DUP10 AND GAS CALL SWAP3 DUP4 ISZERO PUSH2 0x596 JUMPI PUSH1 0x0 SWAP4 PUSH2 0x627 JUMPI JUMPDEST POP PUSH1 0x0 SWAP1 PUSH1 0x20 SWAP1 PUSH2 0x355 SWAP1 PUSH32 0xA078C4190ABE07940190EFFC1846BE0CCF03AD6007BC9E93F9697D0B460BEFBB PUSH1 0x1 PUSH1 0x1 PUSH1 0xA0 SHL SUB PUSH2 0x2AA DUP4 PUSH2 0x8D1 JUMP JUMPDEST MLOAD AND PUSH1 0x1 PUSH1 0x1 PUSH1 0xA0 SHL SUB PUSH2 0x2BD DUP5 PUSH2 0x8F4 JUMP JUMPDEST MLOAD AND PUSH2 0x301 PUSH2 0x2CB DUP11 PUSH2 0x8F4 JUMP JUMPDEST MLOAD PUSH1 0x40 DUP1 MLOAD PUSH1 0x1 PUSH1 0x1 PUSH1 0xA0 SHL SUB SWAP6 DUP7 AND DUP2 MSTORE SWAP5 SWAP1 SWAP4 AND PUSH1 0x20 DUP6 ADD MSTORE PUSH1 0x24 CALLDATALOAD SWAP3 DUP5 ADD SWAP3 SWAP1 SWAP3 MSTORE PUSH1 0x60 DUP4 ADD SWAP2 SWAP1 SWAP2 MSTORE DUP2 SWAP1 PUSH1 0x80 DUP3 ADD SWAP1 JUMP JUMPDEST SUB SWAP1 LOG1 PUSH1 0x1 PUSH1 0x1 PUSH1 0xA0 SHL SUB SWAP1 PUSH2 0x316 SWAP1 PUSH2 0x8F4 JUMP JUMPDEST MLOAD AND PUSH2 0x321 DUP7 PUSH2 0x8F4 JUMP JUMPDEST MLOAD PUSH1 0x40 MLOAD PUSH4 0x95EA7B3 PUSH1 0xE0 SHL DUP2 MSTORE PUSH1 0x1 PUSH1 0x1 PUSH1 0xA0 SHL SUB DUP10 AND PUSH1 0x4 DUP3 ADD MSTORE PUSH1 0x24 DUP2 ADD SWAP2 SWAP1 SWAP2 MSTORE SWAP4 DUP5 SWAP3 DUP4 SWAP2 SWAP1 DUP3 SWAP1 PUSH1 0x44 DUP3 ADD SWAP1 JUMP JUMPDEST SUB SWAP3 GAS CALL DUP1 ISZERO PUSH2 0x596 JUMPI PUSH1 0x0 SWAP5 DUP6 SWAP3 PUSH2 0x3A1 SWAP3 PUSH2 0x608 JUMPI JUMPDEST POP PUSH2 0x377 DUP6 PUSH2 0x8F4 JUMP JUMPDEST MLOAD PUSH1 0x40 MLOAD SWAP7 DUP8 DUP1 SWAP5 DUP2 SWAP4 PUSH4 0x38ED1739 PUSH1 0xE0 SHL DUP4 MSTORE TIMESTAMP SWAP1 DUP10 ADDRESS SWAP2 PUSH1 0xA4 PUSH1 0x84 CALLDATALOAD ADD CALLDATALOAD SWAP1 PUSH1 0x4 DUP8 ADD PUSH2 0x867 JUMP JUMPDEST SUB SWAP3 PUSH1 0x1 PUSH1 0x1 PUSH1 0xA0 SHL SUB AND GAS CALL SWAP3 DUP4 ISZERO PUSH2 0x596 JUMPI PUSH32 0xA078C4190ABE07940190EFFC1846BE0CCF03AD6007BC9E93F9697D0B460BEFBB SWAP4 PUSH2 0x44F SWAP2 PUSH1 0x0 SWAP2 PUSH2 0x5E5 JUMPI JUMPDEST POP PUSH2 0x41F PUSH2 0x418 PUSH1 0x1 PUSH1 0x1 PUSH1 0xA0 SHL SUB PUSH2 0x3FB DUP7 PUSH2 0x8D1 JUMP JUMPDEST MLOAD AND SWAP5 PUSH1 0x1 PUSH1 0x1 PUSH1 0xA0 SHL SUB SWAP1 PUSH2 0x410 SWAP1 PUSH2 0x8F4 JUMP JUMPDEST MLOAD AND SWAP6 PUSH2 0x8F4 JUMP JUMPDEST MLOAD SWAP2 PUSH2 0x8F4 JUMP JUMPDEST MLOAD PUSH1 0x40 DUP1 MLOAD PUSH1 0x1 PUSH1 0x1 PUSH1 0xA0 SHL SUB SWAP6 DUP7 AND DUP2 MSTORE SWAP6 SWAP1 SWAP5 AND PUSH1 0x20 DUP7 ADD MSTORE SWAP3 DUP5 ADD MSTORE PUSH1 0x60 DUP4 ADD SWAP2 SWAP1 SWAP2 MSTORE DUP2 SWAP1 PUSH1 0x80 DUP3 ADD SWAP1 JUMP JUMPDEST SUB SWAP1 LOG1 PUSH1 0x44 CALLDATALOAD PUSH1 0x24 CALLDATALOAD ADD DUP1 PUSH1 0x24 CALLDATALOAD GT PUSH2 0x5CF JUMPI PUSH1 0x40 MLOAD PUSH4 0x95EA7B3 PUSH1 0xE0 SHL DUP2 MSTORE PUSH32 0x0 PUSH1 0x1 PUSH1 0x1 PUSH1 0xA0 SHL SUB AND PUSH1 0x4 DUP3 ADD MSTORE PUSH1 0x24 DUP2 ADD DUP3 SWAP1 MSTORE SWAP2 PUSH1 0x20 DUP4 DUP1 PUSH1 0x44 DUP2 ADD SUB DUP2 PUSH1 0x0 PUSH1 0x1 PUSH1 0x1 PUSH1 0xA0 SHL SUB DUP7 AND GAS CALL SWAP3 DUP4 ISZERO PUSH2 0x596 JUMPI PUSH1 0x20 DUP1 SWAP4 PUSH32 0xEFD8DDDDF5453EDD0268F1D7285C8989D1E3E45BC16E2D7FF936D41DB52BB60E SWAP3 PUSH1 0x24 SWAP7 PUSH2 0x5A2 JUMPI JUMPDEST POP PUSH1 0x40 MLOAD SWAP1 DUP2 MSTORE LOG1 PUSH1 0x40 MLOAD PUSH4 0x70A08231 PUSH1 0xE0 SHL DUP2 MSTORE ADDRESS PUSH1 0x4 DUP3 ADD MSTORE SWAP3 DUP4 SWAP2 DUP3 SWAP1 PUSH1 0x1 PUSH1 0x1 PUSH1 0xA0 SHL SUB AND GAS STATICCALL SWAP1 DUP2 ISZERO PUSH2 0x596 JUMPI PUSH1 0x0 SWAP2 PUSH2 0x563 JUMPI JUMPDEST PUSH32 0x357D905F1831209797DF4D55D79C5C5BF1D9F7311C976AFD05E13D881EAB9BC8 PUSH1 0x20 DUP4 PUSH1 0x40 MLOAD SWAP1 DUP2 MSTORE LOG1 PUSH1 0x20 PUSH1 0x40 MLOAD PUSH1 0x1 DUP2 MSTORE RETURN JUMPDEST SWAP1 POP PUSH1 0x20 DUP2 RETURNDATASIZE PUSH1 0x20 GT PUSH2 0x58E JUMPI JUMPDEST DUP2 PUSH2 0x57E PUSH1 0x20 SWAP4 DUP4 PUSH2 0x717 JUMP JUMPDEST DUP2 ADD SUB SLT PUSH2 0x85 JUMPI MLOAD PUSH1 0x20 PUSH2 0x52D JUMP JUMPDEST RETURNDATASIZE SWAP2 POP PUSH2 0x571 JUMP JUMPDEST PUSH1 0x40 MLOAD RETURNDATASIZE PUSH1 0x0 DUP3 RETURNDATACOPY RETURNDATASIZE SWAP1 REVERT JUMPDEST PUSH2 0x5C1 SWAP1 DUP4 RETURNDATASIZE DUP6 GT PUSH2 0x5C8 JUMPI JUMPDEST PUSH2 0x5B9 DUP2 DUP4 PUSH2 0x717 JUMP JUMPDEST DUP2 ADD SWAP1 PUSH2 0x7D5 JUMP JUMPDEST POP DUP7 PUSH2 0x4F3 JUMP JUMPDEST POP RETURNDATASIZE PUSH2 0x5AF JUMP JUMPDEST PUSH4 0x4E487B71 PUSH1 0xE0 SHL PUSH1 0x0 MSTORE PUSH1 0x11 PUSH1 0x4 MSTORE PUSH1 0x24 PUSH1 0x0 REVERT JUMPDEST PUSH2 0x602 SWAP2 POP RETURNDATASIZE DUP1 PUSH1 0x0 DUP4 RETURNDATACOPY PUSH2 0x5FA DUP2 DUP4 PUSH2 0x717 JUMP JUMPDEST DUP2 ADD SWAP1 PUSH2 0x7ED JUMP JUMPDEST DUP7 PUSH2 0x3E3 JUMP JUMPDEST PUSH2 0x620 SWAP1 PUSH1 0x20 RETURNDATASIZE PUSH1 0x20 GT PUSH2 0x5C8 JUMPI PUSH2 0x5B9 DUP2 DUP4 PUSH2 0x717 JUMP JUMPDEST POP DUP8 PUSH2 0x36D JUMP JUMPDEST PUSH1 0x0 SWAP2 SWAP4 POP PUSH2 0x355 PUSH2 0x644 PUSH1 0x20 SWAP3 RETURNDATASIZE DUP1 DUP7 DUP4 RETURNDATACOPY PUSH2 0x5FA DUP2 DUP4 PUSH2 0x717 JUMP JUMPDEST SWAP5 SWAP3 POP POP PUSH2 0x26D JUMP JUMPDEST PUSH2 0x665 SWAP1 PUSH1 0x20 RETURNDATASIZE PUSH1 0x20 GT PUSH2 0x5C8 JUMPI PUSH2 0x5B9 DUP2 DUP4 PUSH2 0x717 JUMP JUMPDEST POP DUP5 PUSH2 0x224 JUMP JUMPDEST PUSH1 0x40 MLOAD PUSH3 0x461BCD PUSH1 0xE5 SHL DUP2 MSTORE PUSH1 0x20 PUSH1 0x4 DUP3 ADD MSTORE PUSH1 0xC PUSH1 0x24 DUP3 ADD MSTORE PUSH12 0x139BDD0818DBDB9D1C9858DD PUSH1 0xA2 SHL PUSH1 0x44 DUP3 ADD MSTORE PUSH1 0x64 SWAP1 REVERT JUMPDEST PUSH1 0x40 MLOAD PUSH3 0x461BCD PUSH1 0xE5 SHL DUP2 MSTORE PUSH1 0x20 PUSH1 0x4 DUP3 ADD MSTORE PUSH1 0xD PUSH1 0x24 DUP3 ADD MSTORE PUSH13 0x139BDD0810585D99481C1BDBDB PUSH1 0x9A SHL PUSH1 0x44 DUP3 ADD MSTORE PUSH1 0x64 SWAP1 REVERT JUMPDEST CALLVALUE PUSH2 0x85 JUMPI PUSH1 0x0 CALLDATASIZE PUSH1 0x3 NOT ADD SLT PUSH2 0x85 JUMPI PUSH32 0x0 PUSH1 0x1 PUSH1 0x1 PUSH1 0xA0 SHL SUB AND DUP2 MSTORE PUSH1 0x20 SWAP1 RETURN JUMPDEST SWAP1 PUSH1 0x1F DUP1 NOT SWAP2 ADD AND DUP2 ADD SWAP1 DUP2 LT PUSH8 0xFFFFFFFFFFFFFFFF DUP3 GT OR PUSH2 0x739 JUMPI PUSH1 0x40 MSTORE JUMP JUMPDEST PUSH4 0x4E487B71 PUSH1 0xE0 SHL PUSH1 0x0 MSTORE PUSH1 0x41 PUSH1 0x4 MSTORE PUSH1 0x24 PUSH1 0x0 REVERT JUMPDEST PUSH8 0xFFFFFFFFFFFFFFFF DUP2 GT PUSH2 0x739 JUMPI PUSH1 0x5 SHL PUSH1 0x20 ADD SWAP1 JUMP JUMPDEST DUP2 PUSH1 0x1F DUP3 ADD SLT ISZERO PUSH2 0x85 JUMPI DUP1 CALLDATALOAD SWAP2 PUSH2 0x77E DUP4 PUSH2 0x74F JUMP JUMPDEST SWAP3 PUSH2 0x78C PUSH1 0x40 MLOAD SWAP5 DUP6 PUSH2 0x717 JUMP JUMPDEST DUP1 DUP5 MSTORE PUSH1 0x20 SWAP3 DUP4 DUP1 DUP7 ADD SWAP3 PUSH1 0x5 SHL DUP3 ADD ADD SWAP3 DUP4 GT PUSH2 0x85 JUMPI DUP4 ADD SWAP1 JUMPDEST DUP3 DUP3 LT PUSH2 0x7B6 JUMPI POP POP POP POP SWAP1 JUMP JUMPDEST DUP2 CALLDATALOAD PUSH1 0x1 PUSH1 0x1 PUSH1 0xA0 SHL SUB DUP2 AND DUP2 SUB PUSH2 0x85 JUMPI DUP2 MSTORE SWAP1 DUP4 ADD SWAP1 DUP4 ADD PUSH2 0x7A8 JUMP JUMPDEST SWAP1 DUP2 PUSH1 0x20 SWAP2 SUB SLT PUSH2 0x85 JUMPI MLOAD DUP1 ISZERO ISZERO DUP2 SUB PUSH2 0x85 JUMPI SWAP1 JUMP JUMPDEST PUSH1 0x20 SWAP1 DUP2 DUP2 DUP5 SUB SLT PUSH2 0x85 JUMPI DUP1 MLOAD SWAP1 PUSH8 0xFFFFFFFFFFFFFFFF DUP3 GT PUSH2 0x85 JUMPI ADD SWAP2 DUP1 PUSH1 0x1F DUP5 ADD SLT ISZERO PUSH2 0x85 JUMPI DUP3 MLOAD PUSH2 0x823 DUP2 PUSH2 0x74F JUMP JUMPDEST SWAP4 PUSH2 0x831 PUSH1 0x40 MLOAD SWAP6 DUP7 PUSH2 0x717 JUMP JUMPDEST DUP2 DUP6 MSTORE DUP4 DUP1 DUP7 ADD SWAP3 PUSH1 0x5 SHL DUP3 ADD ADD SWAP3 DUP4 GT PUSH2 0x85 JUMPI DUP4 ADD SWAP1 JUMPDEST DUP3 DUP3 LT PUSH2 0x858 JUMPI POP POP POP POP SWAP1 JUMP JUMPDEST DUP2 MLOAD DUP2 MSTORE SWAP1 DUP4 ADD SWAP1 DUP4 ADD PUSH2 0x84A JUMP JUMPDEST SWAP3 SWAP2 SWAP1 SWAP6 SWAP5 SWAP4 SWAP6 PUSH1 0xA0 DUP5 ADD SWAP1 DUP5 MSTORE PUSH1 0x20 SWAP2 DUP3 DUP6 ADD MSTORE PUSH1 0xA0 PUSH1 0x40 DUP6 ADD MSTORE DUP3 MLOAD DUP1 SWAP2 MSTORE DUP2 PUSH1 0xC0 DUP6 ADD SWAP4 ADD SWAP2 PUSH1 0x0 JUMPDEST DUP3 DUP2 LT PUSH2 0x8B4 JUMPI POP POP POP POP SWAP1 PUSH1 0x80 SWAP2 SWAP5 PUSH1 0x1 DUP1 PUSH1 0xA0 SHL SUB AND PUSH1 0x60 DUP3 ADD MSTORE ADD MSTORE JUMP JUMPDEST DUP4 MLOAD PUSH1 0x1 PUSH1 0x1 PUSH1 0xA0 SHL SUB AND DUP6 MSTORE SWAP4 DUP2 ADD SWAP4 SWAP3 DUP2 ADD SWAP3 PUSH1 0x1 ADD PUSH2 0x893 JUMP JUMPDEST DUP1 MLOAD ISZERO PUSH2 0x8DE JUMPI PUSH1 0x20 ADD SWAP1 JUMP JUMPDEST PUSH4 0x4E487B71 PUSH1 0xE0 SHL PUSH1 0x0 MSTORE PUSH1 0x32 PUSH1 0x4 MSTORE PUSH1 0x24 PUSH1 0x0 REVERT JUMPDEST DUP1 MLOAD PUSH1 0x1 LT ISZERO PUSH2 0x8DE JUMPI PUSH1 0x40 ADD SWAP1 JUMP INVALID LOG2 PUSH5 0x6970667358 0x22 SLT KECCAK256 MUL CHAINID 0xA6 0x26 0xB8 CALL PUSH19 0x45B978468FA0259302BAD5D57B45DAB144C62F 0xC1 0x29 0x29 0xF 0xD7 GASLIMIT PUSH5 0x736F6C6343 STOP ADDMOD EQ STOP CALLER "},"methodIdentifiers":{"ADDRESSES_PROVIDER()":"0542975c","POOL()":"7535d246","executeOperation(address,uint256,uint256,address,bytes)":"1b11d0ff"}}}}}