{
  "_format": "hh-sol-artifact-1",
  "contractName": "ProfitBot",
  "sourceName": "contracts/ProfitBot.sol",
  "abi": [
    {
      "inputs": [
        {
          "internalType": "address",
          "name": "_provider",
          "type": "address"
        },
        {
          "internalType": "address",
          "name": "_uniswapRouter",
          "type": "address"
        },
        {
          "internalType": "address",
          "name": "_sushiSwapRouter",
          "type": "address"
        },
        {
          "internalType": "address",
          "name": "_balancerVault",
          "type": "address"
        }
      ],
      "stateMutability": "nonpayable",
      "type": "constructor"
    },
    {
      "anonymous": false,
      "inputs": [
        {
          "indexed": false,
          "internalType": "string",
          "name": "msg",
          "type": "string"
        }
      ],
      "name": "DebugText",
      "type": "event"
    },
    {
      "anonymous": false,
      "inputs": [
        {
          "indexed": true,
          "internalType": "address",
          "name": "previousOwner",
          "type": "address"
        },
        {
          "indexed": true,
          "internalType": "address",
          "name": "newOwner",
          "type": "address"
        }
      ],
      "name": "OwnershipTransferred",
      "type": "event"
    },
    {
      "anonymous": false,
      "inputs": [
        {
          "indexed": false,
          "internalType": "uint256",
          "name": "finalAmount",
          "type": "uint256"
        },
        {
          "indexed": false,
          "internalType": "uint256",
          "name": "totalDebt",
          "type": "uint256"
        }
      ],
      "name": "ProfitEvaluated",
      "type": "event"
    },
    {
      "anonymous": false,
      "inputs": [
        {
          "indexed": false,
          "internalType": "uint256",
          "name": "out",
          "type": "uint256"
        }
      ],
      "name": "SwapResult",
      "type": "event"
    },
    {
      "inputs": [],
      "name": "ADDRESSES_PROVIDER",
      "outputs": [
        {
          "internalType": "contract IPoolAddressesProvider",
          "name": "",
          "type": "address"
        }
      ],
      "stateMutability": "view",
      "type": "function"
    },
    {
      "inputs": [],
      "name": "POOL",
      "outputs": [
        {
          "internalType": "contract IPool",
          "name": "",
          "type": "address"
        }
      ],
      "stateMutability": "view",
      "type": "function"
    },
    {
      "inputs": [],
      "name": "balancerVault",
      "outputs": [
        {
          "internalType": "contract IVault",
          "name": "",
          "type": "address"
        }
      ],
      "stateMutability": "view",
      "type": "function"
    },
    {
      "inputs": [
        {
          "internalType": "bytes",
          "name": "params",
          "type": "bytes"
        }
      ],
      "name": "decodeBalancerParams",
      "outputs": [
        {
          "internalType": "string",
          "name": "route",
          "type": "string"
        },
        {
          "internalType": "address",
          "name": "tokenIn",
          "type": "address"
        },
        {
          "internalType": "address",
          "name": "tokenOut",
          "type": "address"
        },
        {
          "internalType": "bytes32",
          "name": "poolId",
          "type": "bytes32"
        },
        {
          "internalType": "uint256",
          "name": "minOut1",
          "type": "uint256"
        },
        {
          "internalType": "uint256",
          "name": "minOut2",
          "type": "uint256"
        }
      ],
      "stateMutability": "pure",
      "type": "function"
    },
    {
      "inputs": [
        {
          "internalType": "address",
          "name": "asset",
          "type": "address"
        },
        {
          "internalType": "uint256",
          "name": "amount",
          "type": "uint256"
        },
        {
          "internalType": "uint256",
          "name": "premium",
          "type": "uint256"
        },
        {
          "internalType": "address",
          "name": "initiator",
          "type": "address"
        },
        {
          "internalType": "bytes",
          "name": "params",
          "type": "bytes"
        }
      ],
      "name": "executeOperation",
      "outputs": [
        {
          "internalType": "bool",
          "name": "",
          "type": "bool"
        }
      ],
      "stateMutability": "nonpayable",
      "type": "function"
    },
    {
      "inputs": [
        {
          "internalType": "address",
          "name": "token",
          "type": "address"
        },
        {
          "internalType": "uint256",
          "name": "amount",
          "type": "uint256"
        },
        {
          "internalType": "bytes",
          "name": "params",
          "type": "bytes"
        }
      ],
      "name": "initiateFlashloan",
      "outputs": [],
      "stateMutability": "nonpayable",
      "type": "function"
    },
    {
      "inputs": [],
      "name": "owner",
      "outputs": [
        {
          "internalType": "address",
          "name": "",
          "type": "address"
        }
      ],
      "stateMutability": "view",
      "type": "function"
    },
    {
      "inputs": [],
      "name": "renounceOwnership",
      "outputs": [],
      "stateMutability": "nonpayable",
      "type": "function"
    },
    {
      "inputs": [],
      "name": "sushiSwapRouter",
      "outputs": [
        {
          "internalType": "contract IUniswapV2Router02",
          "name": "",
          "type": "address"
        }
      ],
      "stateMutability": "view",
      "type": "function"
    },
    {
      "inputs": [
        {
          "internalType": "address",
          "name": "newOwner",
          "type": "address"
        }
      ],
      "name": "transferOwnership",
      "outputs": [],
      "stateMutability": "nonpayable",
      "type": "function"
    },
    {
      "inputs": [],
      "name": "uniswapRouter",
      "outputs": [
        {
          "internalType": "contract IUniswapV2Router02",
          "name": "",
          "type": "address"
        }
      ],
      "stateMutability": "view",
      "type": "function"
    },
    {
      "inputs": [
        {
          "internalType": "address[]",
          "name": "tokens",
          "type": "address[]"
        }
      ],
      "name": "withdrawAll",
      "outputs": [],
      "stateMutability": "nonpayable",
      "type": "function"
    },
    {
      "inputs": [],
      "name": "withdrawEther",
      "outputs": [],
      "stateMutability": "nonpayable",
      "type": "function"
    },
    {
      "inputs": [
        {
          "internalType": "address",
          "name": "token",
          "type": "address"
        }
      ],
      "name": "withdrawToken",
      "outputs": [],
      "stateMutability": "nonpayable",
      "type": "function"
    },
    {
      "stateMutability": "payable",
      "type": "receive"
    }
  ],
  "bytecode": "0x6101206040818152346200030d5760808262002217803803809162000025828562000312565b8339810103126200030d576200003b826200034c565b916020906200004c8282016200034c565b93620000686060620000608685016200034c565b93016200034c565b60008054336001600160a01b031982168117835587519893966001600160a01b039590949286929083167f8be0079c531659141344cd1fd0a4f28419497f9722a3daafe3b4186f6b6457e08680a316978815620002cb575083169384156200028757831694851562000243578316968715620001ff5790828260049360a05288519384809263026b1d5f60e01b82525afa928315620001f3578193620001af575b5050501660805260c05260e05261010091825251611eb591826200036283396080518281816103300152818161055801528181610c7101528181610dc3015281816113740152611993015260a05182610907015260c0518281816105eb01528181610f3a01528181610fde015261103b015260e05182818160df015281816112090152818161125401526112b30152518181816108c40152818161174d01526118af0152f35b9091809350813d8311620001eb575b620001ca818362000312565b81010312620001e85750620001df906200034c565b38808062000109565b80fd5b503d620001be565b508651903d90823e3d90fd5b865162461bcd60e51b815260048101849052601660248201527f496e76616c69642042616c616e636572207661756c74000000000000000000006044820152606490fd5b865162461bcd60e51b815260048101849052601460248201527f496e76616c696420537573686920726f757465720000000000000000000000006044820152606490fd5b865162461bcd60e51b815260048101849052601660248201527f496e76616c696420556e697377617020726f75746572000000000000000000006044820152606490fd5b62461bcd60e51b815260048101849052601560248201527f496e76616c696420416176652070726f766964657200000000000000000000006044820152606490fd5b600080fd5b601f909101601f19168101906001600160401b038211908210176200033657604052565b634e487b7160e01b600052604160045260246000fd5b51906001600160a01b03821682036200030d5756fe6080604081815260049182361015610022575b505050361561002057600080fd5b005b600092833560e01c9182630542975c146108f357508163158274a5146108af5781631b11d0ff1461083d5781636568a27914610677578163715018a61461061a578163735de9f7146105d65781637362377b146105875781637535d2461461054357816389476069146103ec5781638da5cb5b146103c4578163b4ee8776146102df578163b729411a146101e3578163f2fde38b14610112575063fd829a23146100cc5780610012565b3461010e578160031936011261010e57517f00000000000000000000000000000000000000000000000000000000000000006001600160a01b03168152602090f35b5080fd5b9050346101df5760203660031901126101df5761012d610936565b906101366109da565b6001600160a01b0391821692831561018d575050600054826bffffffffffffffffffffffff60a01b821617600055167f8be0079c531659141344cd1fd0a4f28419497f9722a3daafe3b4186f6b6457e0600080a380f35b906020608492519162461bcd60e51b8352820152602660248201527f4f776e61626c653a206e6577206f776e657220697320746865207a65726f206160448201526564647265737360d01b6064820152fd5b8280fd5b919050346101df57602090816003193601126102db5782356001600160401b03938482116102d75761021791369101610965565b819291019360c0838603126102d75782359081116102d757820184601f820112156102d75780359061024882610a9d565b9561025584519788610a5b565b8287528583830101116102d35795848260a0959493826102a19a01838a013787010152610283848301610951565b61028e828401610951565b825197889760c0895260c08901906109b5565b95600180871b038093169088015216908501526060810135606085015260808101356080850152013560a08301520390f35b8680fd5b8580fd5b8380fd5b919050346101df5760603660031901126101df57826102fc610936565b6044356001600160401b0381116101df5761031a9036908601610965565b9490916103256109da565b6001600160a01b03927f0000000000000000000000000000000000000000000000000000000000000000841692833b156102d75761039586928851998a97889687956310ac2ddf60e21b87523090870152166024850152602435604485015260a0606485015260a4840191610a7c565b82608483015203925af19081156103bb57506103af575080f35b6103b890610a32565b80f35b513d84823e3d90fd5b50503461010e578160031936011261010e57905490516001600160a01b039091168152602090f35b83833461010e57602090816003193601126101df57610409610936565b936104126109da565b81516370a0823160e01b81523081830152946001600160a01b0390811691908487602481865afa96871561053957869761050a575b5086156104ce578554845163a9059cbb60e01b815291166001600160a01b0316918101918252602082018790529291849184919082908890829060400103925af19081156104c55750610498578280f35b816104b792903d106104be575b6104af8183610a5b565b810190610aef565b5081808280f35b503d6104a5565b513d85823e3d90fd5b835162461bcd60e51b815280830186905260166024820152754e6f2062616c616e636520746f20776974686472617760501b6044820152606490fd5b9096508481813d8311610532575b6105228183610a5b565b810103126102d757519587610447565b503d610518565b84513d88823e3d90fd5b50503461010e578160031936011261010e57517f00000000000000000000000000000000000000000000000000000000000000006001600160a01b03168152602090f35b50503461010e578160031936011261010e576105a16109da565b8180808060018060a01b0381541647908282156105cd575bf1156105c3575080f35b51903d90823e3d90fd5b506108fc6105b9565b50503461010e578160031936011261010e57517f00000000000000000000000000000000000000000000000000000000000000006001600160a01b03168152602090f35b83346106745780600319360112610674576106336109da565b80546001600160a01b03198116825581906001600160a01b03167f8be0079c531659141344cd1fd0a4f28419497f9722a3daafe3b4186f6b6457e08280a380f35b80fd5b919050346101df57602091826003193601126102db578035926001600160401b03928385116102d757366023860112156102d757848301359384116102d7576024946005368787831b84010111610839576106d06109da565b875b8681106106dd578880f35b6001600160a01b0381831b840189013581811690819003610835576107006109da565b85516370a0823160e01b815230898201529187838c81855afa92831561082b578c936107f8575b5082156107bd578b54875163a9059cbb60e01b815291166001600160a01b03168982019081526020810193909352918791839182908e90829060400103925af180156107b357610796575b506000198114610784576001016106d2565b634e487b7160e01b8952601186528789fd5b6107ac90863d88116104be576104af8183610a5b565b5038610772565b85513d8c823e3d90fd5b865162461bcd60e51b8152808a018990526016818d0152754e6f2062616c616e636520746f20776974686472617760501b6044820152606490fd5b9092508781813d8311610824575b6108108183610a5b565b8101031261082057519138610727565b8b80fd5b503d610806565b87513d8e823e3d90fd5b8a80fd5b8780fd5b9050346101df5760a03660031901126101df57610858610936565b606435939091906001600160a01b038516850361067457608435906001600160401b038211610674575091610896602095926108a694369101610965565b9290916044359060243590610c09565b90519015158152f35b50503461010e578160031936011261010e57517f00000000000000000000000000000000000000000000000000000000000000006001600160a01b03168152602090f35b84903461010e578160031936011261010e577f00000000000000000000000000000000000000000000000000000000000000006001600160a01b03168152602090f35b600435906001600160a01b038216820361094c57565b600080fd5b35906001600160a01b038216820361094c57565b9181601f8401121561094c578235916001600160401b03831161094c576020838186019501011161094c57565b60005b8381106109a55750506000910152565b8181015183820152602001610995565b906020916109ce81518092818552858086019101610992565b601f01601f1916010190565b6000546001600160a01b031633036109ee57565b606460405162461bcd60e51b815260206004820152602060248201527f4f776e61626c653a2063616c6c6572206973206e6f7420746865206f776e65726044820152fd5b6001600160401b038111610a4557604052565b634e487b7160e01b600052604160045260246000fd5b90601f801991011681019081106001600160401b03821117610a4557604052565b908060209392818452848401376000828201840152601f01601f1916010190565b6001600160401b038111610a4557601f01601f191660200190565b51906001600160a01b038216820361094c57565b91908201809211610ad957565b634e487b7160e01b600052601160045260246000fd5b9081602091031261094c5751801515810361094c5790565b9080601f8301121561094c578135906001600160401b038211610a45578160051b60405193602093610b3b85840187610a5b565b8552838086019282010192831161094c578301905b828210610b5e575050505090565b838091610b6a84610951565b815201910190610b50565b8051821015610b895760209160051b010190565b634e487b7160e01b600052603260045260246000fd5b9291909594939560a084019084526020918285015260a0604085015282518091528160c0850193019160005b828110610bec5750505050906080919460018060a01b031660608201520152565b83516001600160a01b031685529381019392810192600101610bcb565b9594939091929360008095600080516020611e60833981519152606060405160208152601a60208201527f657865637574654f7065726174696f6e282920656e74657265640000000000006040820152a1600080516020611e60833981519152610cf6610c9e7f00000000000000000000000000000000000000000000000000000000000000006001600160a01b0316611d4b565b610ce2602e60405180936d02827a7a61030b2323932b9b99d160951b6020830152610cd28151809260208686019101610992565b810103600e810184520182610a5b565b6040519182916020835260208301906109b5565b0390a1600080516020611e60833981519152610d56610d1433611d4b565b610ce2602c60405180936b036b9b39739b2b73232b91d160a51b6020830152610d468151809260208686019101610992565b810103600c810184520182610a5b565b0390a16001600160a01b0316600080516020611e60833981519152610dbe610d7d83611d4b565b610ce2602b60405180936a034b734ba34b0ba37b91d160ad1b6020830152610dae8151809260208686019101610992565b810103600b810184520182610a5b565b0390a17f00000000000000000000000000000000000000000000000000000000000000006001600160a01b03163303611b9e573003611b5957604051635b94a08d60e11b81526020600482015260008180610e1d602482018789610a7c565b0381305afa60008060009083600095600095611aa7575b5061155857505050505050600080516020611e60833981519152606060405160208152601e60208201527f46616c6c6261636b20746f20556e69737761702f5375736869207061746800006040820152a160c082828101031261094c57610e9a82610951565b906001600160401b0390604084013582811161094c57610ebf90828601908601610b07565b9160608501351161094c57610edc90840160608501358501610b07565b91600080516020611e60833981519152606060405160208152601760208201527f5377617070696e672076696120556e69737761702e2e2e0000000000000000006040820152a160405163095ea7b360e01b81526001600160a01b037f0000000000000000000000000000000000000000000000000000000000000000811660048301526020868101356024840152919283916044918391600091165af180156114f957611539575b5080519081600019810111610ad9576024916020906001600160a01b0390610fb1906000190184610b75565b5116604051938480926370a0823160e01b82523060048301525afa9182156114f957600092611505575b507f00000000000000000000000000000000000000000000000000000000000000006001600160a01b03163b1561094c57604051635c11d79560e01b81526000818061103642308760808c013560208d013560048701610b9f565b0381837f00000000000000000000000000000000000000000000000000000000000000006001600160a01b03165af180156114f9576114e5575b508051806000198101116114d15760249291906020906001600160a01b039061109d906000190184610b75565b5116604051948580926370a0823160e01b82523060048301525afa92831561147e57889361149d575b508282810311610ad957600080516020611e608339815191526111376110ef6080880135611be3565b610ce26032604051809371022bc3832b1ba32b21036b4b727baba189d160751b60208301526111278151809260208686019101610992565b8101036012810184520182610a5b565b0390a1600080516020611e60833981519152611189611157848603611be3565b610ce2602c60405180936b020b1ba3ab0b61037baba1d160a51b6020830152610d468151809260208686019101610992565b0390a1600080516020611e60833981519152606060405160208152601560208201527429bbb0b83834b733903b34b09029bab9b43497171760591b6040820152a180519081600019810111611489576001600160a01b03916111f19160001990910190610b75565b5160405163095ea7b360e01b81526001600160a01b037f0000000000000000000000000000000000000000000000000000000000000000166004820152838503602482015291602091839160449183918d91165af1801561147e5761145f575b507f00000000000000000000000000000000000000000000000000000000000000006001600160a01b03163b156102d357906112ae8793926040519586948594635c11d79560e01b8652429360a030940135910360048701610b9f565b0381837f00000000000000000000000000000000000000000000000000000000000000006001600160a01b03165af1801561145457908491611440575b5050906112f791610acc565b6040516370a0823160e01b8152306004820152936001600160a01b031690602085602481855afa80156114355783949584916113fa575b50916113b8917f651936005c982c0b3f3983ba19c8856f83424e346da1b64243c8d974a3899b34604060209581519081528387820152a160405163095ea7b360e01b81527f00000000000000000000000000000000000000000000000000000000000000006001600160a01b03166004820152602481019190915294859283919082906044820190565b03925af19081156113ee57506113cf575b50600190565b6113e79060203d6020116104be576104af8183610a5b565b50386113c9565b604051903d90823e3d90fd5b91929350506020813d60201161142d575b8161141860209383610a5b565b8101031261094c5751839291906113b861132e565b3d915061140b565b6040513d85823e3d90fd5b61144990610a32565b6101df5782386112eb565b6040513d86823e3d90fd5b6114779060203d6020116104be576104af8183610a5b565b5038611251565b6040513d8a823e3d90fd5b634e487b7160e01b89526011600452602489fd5b9092506020813d6020116114c9575b816114b960209383610a5b565b8101031261094c575191386110c6565b3d91506114ac565b634e487b7160e01b88526011600452602488fd5b6114f0919750610a32565b60009538611070565b6040513d6000823e3d90fd5b9091506020813d602011611531575b8161152160209383610a5b565b8101031261094c57519038610fdb565b3d9150611514565b6115519060203d6020116104be576104af8183610a5b565b5038610f85565b8092959c9a5060209194999897507f9e73ce1e99df7d45bc513893badf42bc38069f1564ee511b0c8988f72f127b13939650519101201461159c5750505050505050565b909192939495969750600080516020611e60833981519152606060405160208152601760208201527f42616c616e63657220726f7574652064657465637465640000000000000000006040820152a1600080516020611e60833981519152606060405160208152601c60208201527f496e73696465205f62616c616e6365725377617053696e676c652829000000006040820152a1604051958660c08101106001600160401b0360c089011117610a455760c0870160405286526000602087015260018060a01b038216604087015260018060a01b031660608601528260808601526040518060208101106001600160401b03602083011117610a4557602081016040526000815260a0860152604051908160808101106001600160401b03608084011117610a4557608082016040523082526000602083015230604083015260006060830152600080516020611e60833981519152608060405160208152602460208201527f417070726f76696e6720746f6b656e496e20666f722042616c616e6365722056604082015263185d5b1d60e21b6060820152a160405163095ea7b360e01b81526001600160a01b037f00000000000000000000000000000000000000000000000000000000000000008116600483015260248201869052909160209183916044918391600091165af180156114f957611a88575b50600080516020611e60833981519152606060405160208152601c60208201527f43616c6c696e672062616c616e6365725661756c742e737761702829000000006040820152a1604051946352bbbe2960e01b865260e06004870152805160e48701526020810151916002831015611a7257602093606061186160a08a96958796610104880152600180831b03604082015116610124880152600180831b0384820151166101448801526080810151610164880152015160c06101848701526101a48601906109b5565b83516001600160a01b039081166024870152878501511515604487015260408501518116606487015291909301511515608485015260a48401919091524260c48401529190039082906000907f0000000000000000000000000000000000000000000000000000000000000000165af19283156114f957600093611a1e575b507ffa494fc6b2615d7ccd02dfa90340c36ed4b7cac6672b2e19b91b468cc4321d34602061191494604051908152a1610acc565b6040516370a0823160e01b81523060048201526001600160a01b0390921691602081602481865afa9081156114f9576000916119eb575b506000926020927f651936005c982c0b3f3983ba19c8856f83424e346da1b64243c8d974a3899b3460406119d79481519081528387820152a160405163095ea7b360e01b81527f00000000000000000000000000000000000000000000000000000000000000006001600160a01b03166004820152602481019190915293849283919082906044820190565b03925af180156114f9576113cf5750600190565b90506020813d602011611a16575b81611a0660209383610a5b565b8101031261094c5751600061194b565b3d91506119f9565b92506020833d602011611a6a575b81611a3960209383610a5b565b8101031261094c579151917ffa494fc6b2615d7ccd02dfa90340c36ed4b7cac6672b2e19b91b468cc4321d346118e0565b3d9150611a2c565b634e487b7160e01b600052602160045260246000fd5b611aa09060203d6020116104be576104af8183610a5b565b5038611797565b955093505050503d91826000823e611abf8382610a5b565b60c081848101031261094c5780516001600160401b03811161094c57838201601f82840101121561094c5780820151611af781610a9d565b94611b056040519687610a5b565b818652830160208284860101011161094c57611b2991602080870191850101610992565b611b3560208201610ab8565b90611b4260408201610ab8565b916080606083015192015194909291949338610e34565b60405162461bcd60e51b815260206004820152601960248201527f4f6e6c7920696e6974696174656420696e7465726e616c6c79000000000000006044820152606490fd5b60405162461bcd60e51b815260206004820152601a60248201527f4f6e6c792063616c6c61626c65206279204161766520706f6f6c0000000000006044820152606490fd5b806000917a184f03e93ff9f4daa797ed6e38ed64bf6a1f01000000000000000080821015611d3d575b506d04ee2d6d415b85acef810000000080831015611d2e575b50662386f26fc1000080831015611d1f575b506305f5e10080831015611d10575b5061271080831015611d01575b506064821015611cf1575b600a80921015611ce7575b60019081602181860195611c7c87610a9d565b96611c8a6040519889610a5b565b808852611c99601f1991610a9d565b01366020890137860101905b611cb1575b5050505090565b600019019083906f181899199a1a9b1b9c1cb0b131b232b360811b8282061a835304918215611ce257919082611ca5565b611caa565b9160010191611c69565b9190606460029104910191611c5e565b60049193920491019138611c53565b60089193920491019138611c46565b60109193920491019138611c37565b60209193920491019138611c25565b604093508104915038611c0c565b60405190606082018281106001600160401b03821117610a4557604052602a82526020908183016040368237835115610b8957603090538251600190811015610b8957607860218501536029905b808211611ded575050611daa575090565b6064906040519062461bcd60e51b825280600483015260248201527f537472696e67733a20686578206c656e67746820696e73756666696369656e746044820152fd5b9091600f81166010811015611e4a578551841015611e4a576f181899199a1a9b1b9c1cb0b131b232b360811b901a85840185015360041c918015611e35576000190190611d99565b60246000634e487b7160e01b81526011600452fd5b60246000634e487b7160e01b81526032600452fdfe3fa2b003dcc5b55511f01e76d1059a2da17c0112d013f01896e70e37bb3f3d57a2646970667358221220066884072642f97c7356b85c6e6968a1f94174c41cdfe76a1d0663e5086033db64736f6c63430008140033",
  "linkReferences": {},
  "deployedLinkReferences": {}
}